:020000040800F2
:1000000000280020E10800087108000877080008AF
:100010007D08000883080008890800080000000027
:100020000000000000000000000000008F08000831
:100030009B08000800000000A7080008B30800089B
:1000400029090008290900082909000829090008C8
:1000500029090008290900082909000829090008B8
:1000600029090008290900082909000829090008A8
:100070002909000829090008290900082909000898
:100080002909000829090008290900082909000888
:100090002909000829090008290900082909000878
:1000A0002909000829090008290900082909000868
:1000B000C1080008290900080000000029090008FB
:1000C00029090008000000000000000029090008BC
:1000D00000000000290900082909000800000000AC
:1000E0002909000829090008290900080000000062
:1000F0000000000000000000000000000000000000
:0C01000000000000000000005FF808F1A3
:10010C0010B5054C237833B9044B13B10448AFF345
:10011C0000800123237010BD0C00002000000000A3
:10012C007028000808B5034B1BB103490348AFF313
:10013C00008008BD0000000010000020702800089E
:10014C0080B586B002AF0346FB71FB7923F00F0339
:10015C00FB73FB791B01BB73FB7B43F00C03DBB222
:10016C003B72FB7B43F00803DBB27B72BB7B43F03F
:10017C000C03DBB2BB72BB7B43F00803DBB2FB723C
:10018C0007F108026423009304234E21034801F075
:10019C004DF800BF1037BD4680BD00BF28000020C1
:1001AC0080B586B002AF0346FB71FB7923F00F03D9
:1001BC00FB73FB791B01BB73FB7B43F00D03DBB2C1
:1001CC003B72FB7B43F00903DBB27B72BB7B43F0DE
:1001DC000D03DBB2BB72BB7B43F00903DBB2FB72DA
:1001EC0007F108026423009304234E21034801F015
:1001FC001DF800BF1037BD4680BD00BF2800002091
:10020C0080B500AF3320FFF79BFF3220FFF798FF3C
:10021C00322000F0E7FB2820FFF792FF322000F09D
:10022C00E1FB0120FFF78CFF322000F0DBFB062006
:10023C00FFF786FF322000F0D5FB0C20FFF780FF84
:10024C00322000F0CFFB0220FFF77AFF322000F0C3
:10025C00C9FB8020FFF774FF00BF80BD80B582B062
:10026C0000AF786006E07B685A1C7A601B781846F1
:10027C00FFF796FF7B681B78002BF4D100BF00BF03
:10028C000837BD4680BD80B584B000AF786039605A
:10029C007B68012B08D17B68DAB23B68DBB2134474
:1002AC00DBB27F33FB7308E03B68DBB24033DBB27D
:1002BC005BB263F07F035BB2FB73FB7B1846FFF70B
:1002CC003FFF00BF1037BD4680BD000080B500AFBA
:1002DC0000F026FB00F03AF800F0EEF800F072F8AF
:1002EC0000F09EF8144801F0FDFE4FF47A7000F017
:1002FC0079FBFFF785FF00210120FFF7C4FF0F48B2
:10030C00FFF7ACFF322000F06DFB00210220FFF75D
:10031C00BAFF0B48FFF7A2FF642000F01BF9094B52
:10032C001B68012BFBD12021074800F021FE642023
:10033C0000F010F9F3E700BF7C00002088280008CB
:10034C0094280008C80000200008014080B590B037
:10035C0000AF07F1180328220021184602F07AFAA0
:10036C003B1D00221A605A609A60DA601A610223FF
:10037C00BB610123BB621023FB6200237B6307F18B
:10038C001803184601F058FA0346002B01D000F070
:10039C00DBF80F237B600023BB600023FB60002392
:1003AC003B6100237B613B1D0021184601F0C6FC1C
:1003BC000346002B01D000F0C7F800BF4037BD4604
:1003CC0080BD000080B500AF124B134A1A60114B70
:1003DC00124A5A600F4B00229A600E4B0022DA60D0
:1003EC000C4B4FF480421A610A4B00225A61094BA4
:1003FC0000229A61074B0022DA61064B00221A6236
:10040C00044800F0CFFD0346002B01D000F09CF80F
:10041C0000BF80BD2800002000540040A0860100D1
:10042C0080B586B000AF07F1080300221A605A604D
:10043C009A60DA603B4600221A605A601D4B4FF0FE
:10044C0080421A601B4B41F63F725A60194B0022D6
:10045C009A60184B0922DA60164B00221A61154B70
:10046C0000229A61134801F0EDFD0346002B01D0E8
:10047C0000F06AF84FF48053BB6007F1080319468B
:10048C000C4801F083FF0346002B01D000F05CF810
:10049C0000233B6000237B603B461946054802F075
:1004AC004BF90346002B01D000F04EF800BF183773
:1004BC00BD4680BD7C00002080B586B000AF07F142
:1004CC00080300221A605A609A60DA60174B9B6925
:1004DC00164A43F004039361144B9B6903F0040325
:1004EC007B607B68114B9B69104A43F00803936156
:1004FC000E4B9B6903F008033B603B6800222021F4
:10050C000B4800F01DFD2023BB600123FB60002382
:10051C003B6102237B6107F108031946044800F094
:10052C0093FB00BF1837BD4680BD00BF00100240D2
:10053C000008014080B582B000AF786000F01EF872
:10054C0000BF0837BD4680BD80B400AF72B600BF97
:10055C00FEE7000080B483B000AF7860054A7B688A
:10056C001360054B00221A6000BF0C37BD4680BCDF
:10057C00704700BFC4000020C800002080B400AF4A
:10058C00514B1B68002B0BDD4F4B1B68013B4E4A3C
:10059C0013604D4B1B68002B02D14C4B01221A608F
:1005AC004B4B1B68002B0BDD494B1B68013B484A2E
:1005BC001360474B1B68002B02D1464B01221A607B
:1005CC00454B1B68002B0BDD434B1B68013B424A20
:1005DC001360414B1B68002B02D1404B01221A6067
:1005EC003F4B1B68002B0BDD3D4B1B68013B3C4A12
:1005FC0013603B4B1B68002B02D13A4B01221A6053
:10060C00394B1B68002B0BDD374B1B68013B364A03
:10061C001360354B1B68002B02D1344B01221A603E
:10062C00334B1B68002B0BDD314B1B68013B304AF5
:10063C0013602F4B1B68002B02D12E4B01221A602A
:10064C002D4B1B68002B0BDD2B4B1B68013B2A4AE7
:10065C001360294B1B68002B02D1284B01221A6016
:10066C00274B1B68002B0BDD254B1B68013B244AD9
:10067C001360234B1B68002B02D1224B01221A6002
:10068C00214B1B68002B0BDD1F4B1B68013B1E4ACB
:10069C0013601D4B1B68002B02D11C4B01221A60EE
:1006AC001B4B1B68002B0BDD194B1B68013B184ABD
:1006BC001360174B1B68002B02D1164B01221A60DA
:1006CC0000BFBD4680BC7047C4000020C80000209D
:1006DC00CC000020D0000020D4000020D800002046
:1006EC00DC000020E0000020E4000020E8000020F6
:1006FC00EC000020F0000020F4000020F8000020A6
:10070C00FC00002000010020040100200801002052
:10071C000C0100201001002080B485B000AF154BF7
:10072C009B69144A43F001039361124B9B6903F0DC
:10073C000103BB60BB680F4BDB690E4A43F080536F
:10074C00D3610C4BDB6903F080537B607B680A4BF5
:10075C005B68FB60FB6823F0E063FB60FB6843F0C5
:10076C000073FB60044AFB68536000BF1437BD463E
:10077C0080BC7047001002400000014080B58AB078
:10078C0000AF786007F1140300221A605A609A6077
:10079C00DA607B681B681D4A934232D11C4B9B6903
:1007AC001B4A43F008039361194B9B6903F0080340
:1007BC003B613B694FF440737B611223BB610123A6
:1007CC00FB6107F114031946124800F03DFA124B75
:1007DC005B687B627B6A43F0E0637B627B6A43F01D
:1007EC0002037B620C4A7B6A5360094BDB69084A43
:1007FC0043F40013D361064BDB6903F40013FB6075
:10080C00FB6800BF2837BD4680BD00BF00540040C8
:10081C0000100240000C01400000014080B584B083
:10082C0000AF78607B681B68B3F1804F13D10C4B21
:10083C00DB690B4A43F00103D361094BDB6903F01D
:10084C000103FB60FB68002200211C2000F0C5F9AD
:10085C001C2000F0DEF900BF1037BD4680BD00BF84
:10086C000010024080B400AFFEE780B400AFFEE79A
:10087C0080B400AFFEE780B400AFFEE780B400AFF9
:10088C00FEE780B400AF00BFBD4680BC704780B4AB
:10089C0000AF00BFBD4680BC704780B400AF00BF46
:1008AC00BD4680BC704780B500AF00F07FF800BF3C
:1008BC0080BD000080B500AF024801F05FFC00BFB6
:1008CC0080BD00BF7C00002080B400AF00BFBD46DF
:1008DC0080BC70470C480D490D4A002302E0D458E7
:1008EC00C4500433C4188C42F9D30A4A0A4C00236E
:1008FC0001E013600432A242FBD3FFF7E5FF01F0E5
:10090C0085FFFFF7E3FC7047000000200C0000207F
:10091C00CC2800080C00002018010020FEE7000085
:10092C0080B500AF084B1B68074A43F010031360F7
:10093C00032000F047F90F2000F008F8FFF7ECFE59
:10094C000023184680BD00BF0020024080B582B055
:10095C0000AF7860124B1A68124B1B7819464FF493
:10096C007A73B3FBF1F3B2FBF3F3184600F05FF9C3
:10097C000346002B01D001230EE07B680F2B0AD815
:10098C00002279684FF0FF3000F027F9064A7B68A7
:10099C001360002300E0012318460837BD4680BDD4
:1009AC0000000020080000200400002080B400AFEC
:1009BC00054B1B781A46054B1B681344034A1360FE
:1009CC0000BFBD4680BC7047080000201401002009
:1009DC0080B400AF024B1B681846BD4680BC704704
:1009EC001401002080B584B000AF7860FFF7F0FFF1
:1009FC00B8607B68FB60FB68B3F1FF3F05D00A4B26
:100A0C001B781A46FB681344FB6000BFFFF7E0FF3E
:100A1C000246BB68D31AFA689A42F7D800BF00BFE7
:100A2C001037BD4680BD00BF0800002080B485B0E3
:100A3C0000AF78607B6803F00703FB600C4BDB684E
:100A4C00BB60BA684FF6FF031340BB60FB681A0229
:100A5C00BB68134343F0BF6343F40033BB60044AE9
:100A6C00BB68D36000BF1437BD4680BC704700BF65
:100A7C0000ED00E080B400AF044BDB681B0A03F010
:100A8C0007031846BD4680BC704700BF00ED00E070
:100A9C0080B483B000AF0346FB7197F90730002B8D
:100AAC000BDBFB7903F01F02064997F907305B0952
:100ABC00012000FA02F241F8232000BF0C37BD469A
:100ACC0080BC704700E100E080B483B000AF034607
:100ADC003960FB7197F90730002B0ADB3B68DAB2FF
:100AEC000C4997F907301201D2B20B4483F800235A
:100AFC000AE03B68DAB20849FB7903F00F03043BC8
:100B0C001201D2B20B441A7600BF0C37BD4680BC22
:100B1C00704700BF00E100E000ED00E080B489B058
:100B2C0000AFF860B9607A60FB6803F00703FB6103
:100B3C00FB69C3F10703042B28BF0423BB61FB69CA
:100B4C000433062B02D9FB69033B00E000237B61D5
:100B5C004FF0FF32BB6902FA03F3DA43BB681A4069
:100B6C007B699A404FF0FF317B6901FA03F3D9435B
:100B7C007B680B40134318462437BD4680BC704736
:100B8C0080B582B000AF78607B68013BB3F1807FA9
:100B9C0001D301230FE00A4A7B68013B53600F210C
:100BAC004FF0FF30FFF790FF054B00229A60044B8B
:100BBC0007221A60002318460837BD4680BD00BFC7
:100BCC0010E000E080B582B000AF78607868FFF785
:100BDC002DFF00BF0837BD4680BD80B586B000AF85
:100BEC000346B9607A60FB7300237B61FFF742FF19
:100BFC0078617A68B9687869FFF790FF024697F9CF
:100C0C000F3011461846FFF75FFF00BF1837BD467F
:100C1C0080BD80B582B000AF0346FB7197F90730F9
:100C2C001846FFF735FF00BF0837BD4680BD80B5BD
:100C3C0082B000AF78607868FFF7A2FF03461846D1
:100C4C000837BD4680BD000080B48BB000AF786023
:100C5C00396000237B6200233B6261E101227B6AE5
:100C6C0002FA03F3FB613B681B68FA691340BB6132
:100C7C00BA69FB699A4240F050813B685B68974ABD
:100C8C0093425ED0954A934275D8954A934258D078
:100C9C00934A93426FD8934A934252D0914A9342CB
:100CAC0069D8914A93424CD08F4A934263D88F4A69
:100CBC00934246D08D4A93425DD8122B2AD8122BE0
:100CCC0059D801A252F823F04F0D0008290D000845
:100CDC003B0D00087D0D0008830D0008830D0008F6
:100CEC00830D0008830D0008830D0008830D000898
:100CFC00830D0008830D0008830D0008830D000888
:100D0C00830D0008830D0008830D0008310D0008C9
:100D1C00450D0008764A934213D02CE03B68DB6803
:100D2C003B6229E03B68DB6804333B6224E03B68B0
:100D3C00DB6808333B621FE03B68DB680C333B62CB
:100D4C001AE03B689B68002B02D104233B6213E042
:100D5C003B689B68012B05D108233B627B68FA69D1
:100D6C001A6109E008233B627B68FA695A6103E067
:100D7C0000233B6200E000BFBB69FF2B01D87B68FE
:100D8C0001E07B6804337B61BB69FF2B02D87B6A73
:100D9C009B0002E07B6A083B9B003B617B691A6805
:100DAC000F213B6901FA03F3DB431A40396A3B69B3
:100DBC0001FA03F31A437B691A603B685B6803F022
:100DCC008053002B00F0A9804A4B9B69494A43F0A1
:100DDC0001039361474B9B6903F00103BB60BB6844
:100DEC00454A7B6A9B08023352F82330FB607B6ACE
:100DFC0003F003039B000F2202FA03F3DB43FA68B0
:100E0C001340FB607B683D4A93420DD07B683C4AA3
:100E1C00934207D07B683B4A934201D1022304E002
:100E2C00032302E0012300E000237A6A02F00302AC
:100E3C0092009340FA681343FB602F497B6A9B082E
:100E4C000233FA6841F823203B685B6803F4803373
:100E5C00002B06D02C4B1A682B49BB6913430B6033
:100E6C0006E0294B1A68BB69DB43274913400B602A
:100E7C003B685B6803F40033002B06D0224B5A68A6
:100E8C002149BB6913434B6006E01F4B5A68BB6991
:100E9C00DB431D4913404B603B685B6803F48013D4
:100EAC00002B06D0184B9A681749BB6913438B600B
:100EBC0006E0154B9A68BB69DB43134913408B6002
:100ECC003B685B6803F40013002B1FD00E4BDA68F1
:100EDC000D49BB691343CB601FE000BF000032100B
:100EEC000000311000002210000021100000121030
:100EFC0000001110001002400000014000080140E9
:100F0C00000C014000100140000401400B4BDA685A
:100F1C00BB69DB4309491340CB607B6A01337B62BD
:100F2C003B681A687B6A22FA03F3002B7FF496AEB7
:100F3C0000BF00BF2C37BD4680BC70470004014089
:100F4C0080B483B000AF78600B467B8013467B7017
:100F5C007B78002B03D07A887B681A6103E07B884E
:100F6C001A047B681A6100BF0C37BD4680BC704701
:100F7C0080B485B000AF78600B467B807B68DB6803
:100F8C00FB607A88FB6813401A04FB68D9437B88A2
:100F9C000B401A437B681A6100BF1437BD4680BCF6
:100FAC007047000080B584B000AF78607B68002B80
:100FBC0001D101232BE17B6893F83D30DBB2002B90
:100FCC0006D17B68002283F83C207868FFF7D6FBBB
:100FDC007B68242283F83D207B681B681A687B6839
:100FEC001B6822F001021A607B681B681A687B6818
:100FFC001B6842F400421A607B681B681A687B68A5
:10100C001B6822F400421A6000F0EAFFF8607B686B
:10101C005B68814A934207D8FB68804A934294BF2D
:10102C0001230023DBB206E0FB687D4A934294BFA8
:10103C0001230023DBB2002B01D00123E7E0FB6886
:10104C00784AA2FB03239B0CBB607B681B685B6824
:10105C0023F03F017B681B68BA680A435A607B68BF
:10106C001B681B6A23F03F017B685B686A4A9342EA
:10107C0002D8BB68013309E0BB684FF4967202FBDF
:10108C0003F3694AA2FB03239B0901337A681268B4
:10109C000B4313627B681B68DB6923F44F4222F01D
:1010AC00FF027B685B685C498B4219D8FB68591E50
:1010BC007B685B685B00B1FBF3F3591C40F6FC7377
:1010CC000B40002B0AD0FB68591E7B685B685B00E9
:1010DC00B1FBF3F30133C3F30B0351E004234FE0F3
:1010EC007B689B68002B11D1FB68581E7B68596884
:1010FC000B465B000B44B0FBF3F30133C3F30B0360
:10110C00002B0CBF01230023DBB212E0FB68581E3E
:10111C007B6859680B469B000B4499000B44B0FB51
:10112C00F3F30133C3F30B03002B0CBF0123002398
:10113C00DBB2002B01D0012322E07B689B68002BE3
:10114C000ED1FB68581E7B6859680B465B000B443C
:10115C00B0FBF3F30133C3F30B0343F400430FE091
:10116C00FB68581E7B6859680B469B000B44990022
:10117C000B44B0FBF3F30133C3F30B0343F44043D1
:10118C00796809681343CB617B681B681B6823F083
:10119C00C0017B68DA697B681B6A1A437B681B6831
:1011AC000A431A607B681B689B6823F4034323F093
:1011BC00FF037A6811697A68D26811437A681268F9
:1011CC000B4393607B681B68DB6823F0FF017B6833
:1011DC005A697B689B691A437B681B680A43DA600F
:1011EC007B681B681A687B681B6842F001021A60F6
:1011FC007B6800221A647B68202283F83D207B6880
:10120C0000221A637B68002283F83E2000231846D4
:10121C001037BD4680BD00BFA08601007F841E0034
:10122C00FF083D0083DE1B43D34D621080B588B0B0
:10123C0002AFF8607A601A460B467B8113463B81FD
:10124C00FFF7C6FB7861FB6893F83D30DBB2202BCF
:10125C0040F0E0807B690093192301227049F86803
:10126C0000F064F90346002B01D00223D3E0FB68A5
:10127C0093F83C30012B01D10223CCE0FB68012216
:10128C0083F83C20FB681B681B6803F00103012BEF
:10129C0007D0FB681B681A68FB681B6842F00102E8
:1012AC001A60FB681B681A68FB681B6822F40062F2
:1012BC001A60FB68212283F83D20FB68102283F81A
:1012CC003E20FB6800221A64FB687A685A62FB684D
:1012DC003A895A85FB685B8D9AB2FB681A85FB6864
:1012EC00504ADA6279897B693A6AF86800F09CF8AE
:1012FC000346002B01D001238DE000233B61FB68EA
:10130C001B685B693B61FB681B689B693B613B69C4
:10131C0066E07A69396AF86800F0DEF90346002B5A
:10132C000DD0FB681B6C042B07D1FB681B681A687B
:10133C00FB681B6842F400721A6001236BE0FB68C7
:10134C005B6A1A78FB681B681A61FB685B6A5A1C3B
:10135C00FB685A62FB685B8D9BB2013B9AB2FB68DF
:10136C005A85FB681B8D013B9AB2FB681A85FB689A
:10137C001B685B6903F00403042B1BD1FB681B8DFA
:10138C00002B17D0FB685B6A1A78FB681B681A6124
:10139C00FB685B6A5A1CFB685A62FB685B8D9BB2EC
:1013AC00013B9AB2FB685A85FB681B8D013B9AB2D4
:1013BC00FB681A857A69396AF86800F0CEF9034639
:1013CC00002B0DD0FB681B6C042B07D1FB681B6832
:1013DC001A68FB681B6842F400721A6001231AE059
:1013EC00FB681B8D002B94D1FB681B681A68FB688B
:1013FC001B6842F400721A60FB68202283F83D20BF
:10140C00FB68002283F83E20FB68002283F83C2016
:10141C00002300E0022318461837BD4680BD00BFEC
:10142C00020010000000FFFF80B588B002AFF8602A
:10143C007A603B600B467B81FB68DB6A7B617B6976
:10144C00082B06D07B69012B03D07B6913F5803FF9
:10145C0008D1FB681B681A68FB681B6842F4807231
:10146C001A600BE0FB681B6B122B07D1FB681B6827
:10147C001A68FB681B6842F480721A603B68009320
:10148C007B6800224FF00111F86800F04FF803461A
:10149C00002B0DD0FB681B681B6803F48073B3F53D
:1014AC00807F03D1FB684FF400721A64032335E08C
:1014BC00FB681B69B3F5804F08D17B89DBB21A46F8
:1014CC00FB681B6802F0FE021A611BE07B89DB11D2
:1014DC00DBB203F00603DBB263F00F03DAB2FB6896
:1014EC001B681A613B687A680E49F86800F075F859
:1014FC000346002B01D0012310E07B89DAB2FB6894
:10150C001B681A613B687A680749F86800F065F84F
:10151C000346002B01D0012300E0002318461837A6
:10152C00BD4680BD080001000200010080B584B0FA
:10153C0000AFF860B9603B601346FB7125E03B6877
:10154C00B3F1FF3F21D0FFF743FA0246BB69D31A30
:10155C003A689A4202D33B68002B16D1FB680022F2
:10156C001A63FB68202283F83D20FB68002283F875
:10157C003E20FB681B6C43F02002FB681A64FB687E
:10158C00002283F83C20012323E0BB681B0CDBB258
:10159C00012B0DD1FB681B685B69DA43BB681340F8
:1015AC009BB2002B0CBF01230023DBB21A460CE0CC
:1015BC00FB681B689B69DA43BB6813409BB2002B2A
:1015CC000CBF01230023DBB21A46FB799A42B6D03A
:1015DC00002318461037BD4680BD80B584B000AFDF
:1015EC00F860B9607A603B6051E0FB681B685B692E
:1015FC0003F48063B3F5806F23D1FB681B681A6812
:10160C00FB681B6842F400721A60FB681B686FF47D
:10161C0080625A61FB6800221A63FB68202283F8FF
:10162C003D20FB68002283F83E20FB681B6C43F0D6
:10163C000402FB681A64FB68002283F83C20012337
:10164C0046E07B68B3F1FF3F21D0FFF7C1F90246BA
:10165C003B68D31A7A689A4202D37B68002B16D166
:10166C00FB6800221A63FB68202283F83D20FB688C
:10167C00002283F83E20FB681B6C43F02002FB68C1
:10168C001A64FB68002283F83C20012320E0BB682D
:10169C001B0CDBB2012B0CD1FB681B685B69DA43BA
:1016AC00BB6813409BB2002B14BF01230023DBB299
:1016BC000BE0FB681B689B69DA43BB6813409BB269
:1016CC00002B14BF01230023DBB2002B8DD1002390
:1016DC0018461037BD4680BD80B584B000AFF860A9
:1016EC00B9607A602DE0F86800F078F80346002BBA
:1016FC0001D001232DE0BB68B3F1FF3F21D0FFF7F0
:10170C0067F902467B68D31ABA689A4202D3BB685F
:10171C00002B16D1FB6800221A63FB68202283F889
:10172C003D20FB68002283F83E20FB681B6C43F0D5
:10173C002002FB681A64FB68002283F83C2001231A
:10174C0007E0FB681B685B6903F08003802BCAD140
:10175C00002318461037BD4680BD80B584B000AF5D
:10176C00F860B9607A602DE0F86800F037F803464D
:10177C00002B01D001232DE0BB68B3F1FF3F21D03A
:10178C00FFF726F902467B68D31ABA689A4202D34D
:10179C00BB68002B16D1FB6800221A63FB68202261
:1017AC0083F83D20FB68002283F83E20FB681B6C0D
:1017BC0043F02002FB681A64FB68002283F83C208B
:1017CC00012307E0FB681B685B6903F00403042B2F
:1017DC00CAD1002318461037BD4680BD80B483B0F3
:1017EC0000AF78607B681B685B6903F48063B3F5BA
:1017FC00806F1BD17B681B686FF480625A617B68B9
:10180C0000221A637B68202283F83D207B6800222B
:10181C0083F83E207B681B6C43F004027B681A64DF
:10182C007B68002283F83C20012300E0002318464B
:10183C000C37BD4680BC704780B586B000AF786071
:10184C007B68002B01D1012372E27B681B6803F0DB
:10185C000103002B00F08780924B5B6803F00C03B4
:10186C00042B0CD08F4B5B6803F00C03082B12D1AC
:10187C008C4B5B6803F48033B3F5803F0BD1894B01
:10188C001B6803F40033002B6CD07B685B68002B67
:10189C0068D101234CE27B685B68B3F5803F06D1CD
:1018AC00804B1B687F4A43F4803313602EE07B68C7
:1018BC005B68002B0CD17B4B1B687A4A23F480337A
:1018CC001360784B1B68774A23F4802313601DE068
:1018DC007B685B68B3F5A02F0CD1724B1B68714A07
:1018EC0043F4802313606F4B1B686E4A43F48033C0
:1018FC0013600BE06B4B1B686A4A23F48033136054
:10190C00684B1B68674A23F4802313607B685B6811
:10191C00002B13D0FFF75CF8386108E0FFF758F89C
:10192C0002463B69D31A642B01D9032300E25D4BB9
:10193C001B6803F40033002BF0D014E0FFF748F8D9
:10194C00386108E0FFF744F802463B69D31A642B70
:10195C0001D90323ECE1534B1B6803F40033002B38
:10196C00F0D100E000BF7B681B6803F00203002B82
:10197C0063D04C4B5B6803F00C03002B0BD0494B32
:10198C005B6803F00C03082B1CD1464B5B6803F41B
:10199C008033002B16D1434B1B6803F00203002B42
:1019AC0005D07B681B69012B01D00123C0E13D4BA5
:1019BC001B6823F0F8027B685B69DB003949134331
:1019CC000B603AE07B681B69002B20D0364B012260
:1019DC001A60FEF7FDFF386108E0FEF7F9FF0246DA
:1019EC003B69D31A022B01D90323A1E12D4B1B68B0
:1019FC0003F00203002BF0D02A4B1B6823F0F802F3
:101A0C007B685B69DB00274913430B6015E0264BB1
:101A1C0000221A60FEF7DCFF386108E0FEF7D8FF01
:101A2C0002463B69D31A022B01D9032380E11D4BDB
:101A3C001B6803F00203002BF0D17B681B6803F0DA
:101A4C000803002B3AD07B689B69002B19D0174BED
:101A5C0001221A60FEF7BCFF386108E0FEF7B8FF00
:101A6C0002463B69D31A022B01D9032360E10D4BCB
:101A7C005B6A03F00203002BF0D0012000F0C4FAE3
:101A8C001CE00A4B00221A60FEF7A2FF38610FE03F
:101A9C00FEF79EFF02463B69D31A022B08D903239B
:101AAC0046E100BF00100240000042428004424266
:101ABC00924B5B6A03F00203002BE9D17B681B6835
:101ACC0003F00403002B00F0A6800023FB758B4B66
:101ADC00DB6903F08053002B0DD1884BDB69874AFF
:101AEC0043F08053D361854BDB6903F08053BB60BB
:101AFC00BB680123FB75824B1B6803F48073002BBE
:101B0C0018D17F4B1B687E4A43F480731360FEF739
:101B1C005FFF386108E0FEF75BFF02463B69D31AB2
:101B2C00642B01D9032303E1754B1B6803F4807309
:101B3C00002BF0D07B68DB68012B06D16F4B1B6A46
:101B4C006E4A43F0010313622DE07B68DB68002BC7
:101B5C000CD16A4B1B6A694A23F001031362674B71
:101B6C001B6A664A23F0040313621CE07B68DB6883
:101B7C00052B0CD1614B1B6A604A43F004031362C2
:101B8C005E4B1B6A5D4A43F0010313620BE05B4B37
:101B9C001B6A5A4A23F001031362584B1B6A574ABB
:101BAC0023F0040313627B68DB68002B15D0FEF76F
:101BBC000FFF38610AE0FEF70BFF02463B69D31AB0
:101BCC0041F28832934201D90323B1E04B4B1B6A9B
:101BDC0003F00203002BEED014E0FEF7F9FE38619F
:101BEC000AE0FEF7F5FE02463B69D31A41F2883251
:101BFC00934201D903239BE0404B1B6A03F0020381
:101C0C00002BEED1FB7D012B05D13C4BDB693B4A14
:101C1C0023F08053D3617B68DB69002B00F0878055
:101C2C00364B5B6803F00C03082B61D07B68DB69D7
:101C3C00022B46D1334B00221A60FEF7C9FE3861E5
:101C4C0008E0FEF7C5FE02463B69D31A022B01D908
:101C5C0003236DE0294B1B6803F00073002BF0D1BC
:101C6C007B681B6AB3F5803F08D1244B5B6823F477
:101C7C0000327B689B68214913434B601F4B5B68A8
:101C8C0023F474127B68196A7B685B6A0B431B49EB
:101C9C0013434B601B4B01221A60FEF799FE38610F
:101CAC0008E0FEF795FE02463B69D31A022B01D9D8
:101CBC0003233DE0114B1B6803F00073002BF0D0A5
:101CCC0035E0104B00221A60FEF782FE386108E006
:101CDC00FEF77EFE02463B69D31A022B01D9032381
:101CEC0026E0064B1B6803F00073002BF0D11EE0BE
:101CFC007B68DB69012B07D1012319E0001002403E
:101D0C0000700040600042420B4B5B68FB60FB685C
:101D1C0003F480327B681B6A9A4206D1FB6803F499
:101D2C0070127B685B6A9A4201D0012300E00023A9
:101D3C0018461837BD4680BD0010024080B584B0EF
:101D4C0000AF786039607B68002B01D10123D0E0B3
:101D5C006A4B1B6803F007033A689A4210D9674B29
:101D6C001B6823F0070265493B6813430B60634B08
:101D7C001B6803F007033A689A4201D00123B8E0CC
:101D8C007B681B6803F00203002B20D07B681B6868
:101D9C0003F00403002B05D0594B5B68584A43F4FD
:101DAC00E06353607B681B6803F00803002B05D0CD
:101DBC00534B5B68524A43F460535360504B5B681F
:101DCC0023F0F0027B689B684D4913434B607B68A2
:101DDC001B6803F00103002B40D07B685B68012B70
:101DEC0007D1474B1B6803F40033002B15D101239B
:101DFC007FE07B685B68022B07D1414B1B6803F0CB
:101E0C000073002B09D1012373E03D4B1B6803F0D9
:101E1C000203002B01D101236BE0394B5B6823F0EB
:101E2C0003027B685B68364913434B60FEF7D0FDB9
:101E3C00F8600AE0FEF7CCFD0246FB68D31A41F2CB
:101E4C008832934201D9032353E02D4B5B6803F096
:101E5C000C027B685B689B009A42EBD1274B1B689A
:101E6C0003F007033A689A4210D2244B1B6823F004
:101E7C00070222493B6813430B60204B1B6803F09D
:101E8C0007033A689A4201D0012332E07B681B6851
:101E9C0003F00403002B08D0194B5B6823F4E062B9
:101EAC007B68DB68164913434B607B681B6803F047
:101EBC000803002B09D0124B5B6823F460527B683B
:101ECC001B69DB000E4913434B6000F021F80246FE
:101EDC000B4B5B681B0903F00F030A49CB5C22FA1E
:101EEC0003F3094A1360094B1B681846FEF72EFDD5
:101EFC00002318461037BD4680BD00BF00200240AD
:101F0C0000100240AC280008000000200400002053
:101F1C0090B48AB000AF294B3C1D0FCB84E80F0066
:101F2C0040F201233B800023FB610023BB610023B3
:101F3C007B6200237B6100233B62214B5B68FB616E
:101F4C00FB6903F00C03042B02D0082B03D02BE00D
:101F5C001C4B3B622BE0FB699B0C03F00F032833FB
:101F6C003B4413F8243C7B61FB6903F48033002B66
:101F7C0012D0134B5B685B0C03F0010328333B441A
:101F8C0013F8283CBB617B690E4A03FB02F2BB6968
:101F9C00B2FBF3F37B6204E07B690B4A02FB03F3B5
:101FAC007B627B6A3B6202E0064B3B6200BF3B6A92
:101FBC0018462837BD4690BC704700BF9C280008C7
:101FCC000010024000127A0000093D0080B400AFFE
:101FDC00024B1B681846BD4680BC704700000020B1
:101FEC0080B500AFFFF7F2FF0246054B5B681B0A9A
:101FFC0003F007030349CB5C22FA03F3184680BDB8
:10200C0000100240BC28000880B485B000AF786096
:10201C000A4B1B680A4AA2FB03235B0A7A6802FB81
:10202C0003F3FB6000BFFB685A1EFA60002BF9D16A
:10203C0000BF00BF1437BD4680BC704700000020B5
:10204C00D34D621080B582B000AF78607B68002BF6
:10205C0001D1012341E07B6893F83D30DBB2002BCA
:10206C0006D17B68002283F83C207868FEF7D6FB0B
:10207C007B68022283F83D207B681A687B680433F6
:10208C001946104600F06AFA7B68012283F8462054
:10209C007B68012283F83E207B68012283F83F2075
:1020AC007B68012283F840207B68012283F8412061
:1020BC007B68012283F842207B68012283F843204D
:1020CC007B68012283F844207B68012283F8452039
:1020DC007B68012283F83D20002318460837BD4653
:1020EC0080BD000080B485B000AF78607B6893F849
:1020FC003D30DBB2012B01D0012335E07B6802229D
:10210C0083F83D207B681B68DA687B681B6842F0AB
:10211C000102DA607B681B68164A934209D07B681F
:10212C001B68B3F1804F04D07B681B68124A934242
:10213C0011D17B681B689B6803F00703FB60FB688D
:10214C00062B10D07B681B681A687B681B6842F0F2
:10215C0001021A6007E07B681B681A687B681B68C1
:10216C0042F001021A60002318461437BD4680BCA9
:10217C00704700BF002C01400004004080B582B0C5
:10218C0000AF78607B681B681B6903F00203022BAD
:10219C0022D17B681B68DB6803F00203022B1BD186
:1021AC007B681B686FF002021A617B6801221A7748
:1021BC007B681B689B6903F00303002B03D07868D2
:1021CC0000F0B1F905E0786800F0A4F9786800F047
:1021DC00B3F97B6800221A777B681B681B6903F0D4
:1021EC000403042B22D17B681B68DB6803F0040317
:1021FC00042B1BD17B681B686FF004021A617B688F
:10220C0002221A777B681B689B6903F44073002BCE
:10221C0003D0786800F087F905E0786800F07AF967
:10222C00786800F089F97B6800221A777B681B6854
:10223C001B6903F00803082B22D17B681B68DB6841
:10224C0003F00803082B1BD17B681B686FF0080296
:10225C001A617B6804221A777B681B68DB6903F0C0
:10226C000303002B03D0786800F05DF905E0786873
:10227C0000F050F9786800F05FF97B6800221A775B
:10228C007B681B681B6903F01003102B22D17B6841
:10229C001B68DB6803F01003102B1BD17B681B68D9
:1022AC006FF010021A617B6808221A777B681B6832
:1022BC00DB6903F44073002B03D0786800F033F92A
:1022CC0005E0786800F026F9786800F035F97B684D
:1022DC0000221A777B681B681B6903F00103012B32
:1022EC000ED17B681B68DB6803F00103012B07D15F
:1022FC007B681B686FF001021A617868FEF71AF9A7
:10230C007B681B681B6903F08003802B0ED17B68F4
:10231C001B68DB6803F08003802B07D17B681B688C
:10232C006FF080021A61786800F067FA7B681B68AE
:10233C001B6903F04003402B0ED17B681B68DB68E4
:10234C0003F04003402B07D17B681B686FF0400201
:10235C001A61786800F0F9F87B681B681B6903F058
:10236C002003202B0ED17B681B68DB6803F0200355
:10237C00202B07D17B681B686FF020021A617868EC
:10238C0000F032FA00BF0837BD4680BD80B584B07E
:10239C0000AF786039607B6893F83C30012B01D139
:1023AC000223B3E07B68012283F83C207B68022285
:1023BC0083F83D207B681B689B68FB60FB6823F0FF
:1023CC007703FB60FB6823F47F43FB607B681B682F
:1023DC00FA689A603B681B68B3F5005F3ED0B3F5B2
:1023EC00005F00F28780B3F5805F00F08580B3F565
:1023FC00805F7FD8702B1AD0702B7BD8602B50D07D
:10240C00602B77D8502B3CD0502B73D8402B58D006
:10241C00402B6FD8302B64D0302B6BD8202B60D056
:10242C00202B67D8002B5CD0102B5AD062E07B6835
:10243C0018683B6899683B685A683B68DB6800F031
:10244C005CF97B681B689B68FB60FB6843F0770357
:10245C00FB607B681B68FA689A604EE07B681868C2
:10246C003B6899683B685A683B68DB6800F045F943
:10247C007B681B689A687B681B6842F480429A6090
:10248C003BE07B6818683B6859683B68DB681A4618
:10249C0000F0BCF87B681B685021184600F013F95B
:1024AC002BE07B6818683B6859683B68DB681A4608
:1024BC0000F0DAF87B681B686021184600F003F91D
:1024CC001BE07B6818683B6859683B68DB681A46F8
:1024DC0000F09CF87B681B684021184600F0F3F86C
:1024EC000BE07B681A683B681B681946104600F0C5
:1024FC00EAF802E000BF00E000BF7B68012283F82D
:10250C003D207B68002283F83C20002318461037BE
:10251C00BD4680BD80B483B000AF786000BF0C377F
:10252C00BD4680BC704780B483B000AF786000BFFC
:10253C000C37BD4680BC704780B483B000AF786068
:10254C0000BF0C37BD4680BC704780B483B000AF71
:10255C00786000BF0C37BD4680BC704780B485B036
:10256C0000AF786039607B681B68FB607B68254A2C
:10257C00934207D07B68B3F1804F03D07B68224A2B
:10258C00934208D1FB6823F07003FB603B685B68E7
:10259C00FA681343FB607B681A4A934207D07B6846
:1025AC00B3F1804F03D07B68174A934208D1FB6884
:1025BC0023F44073FB603B68DB68FA681343FB60F1
:1025CC00FB6823F080023B685B691343FB607B680C
:1025DC00FA681A603B689A687B68DA623B681A682A
:1025EC007B689A627B68074A934203D13B681A69FD
:1025FC007B681A637B6801225A6100BF1437BD46A1
:10260C0080BC7047002C01400004004080B487B0AF
:10261C0000AFF860B9607A60FB681B6A7B61FB688D
:10262C001B6A23F00102FB681A62FB689B693B6121
:10263C003B6923F0F0033B617B681B013A69134350
:10264C003B617B6923F00A037B617A69BB681343A6
:10265C007B61FB683A699A61FB687A691A6200BF10
:10266C001C37BD4680BC704780B487B000AFF860A3
:10267C00B9607A60FB681B6A23F01002FB681A626F
:10268C00FB689B697B61FB681B6A3B617B6923F47C
:10269C0070437B617B681B037A6913437B613B69E5
:1026AC0023F0A0033B61BB681B013A6913433B61F8
:1026BC00FB687A699A61FB683A691A6200BF1C3739
:1026CC00BD4680BC704780B485B000AF786039607F
:1026DC007B689B68FB60FB6823F07003FB603A68C7
:1026EC00FB68134343F00703FB607B68FA689A604E
:1026FC0000BF1437BD4680BC704780B487B000AFB4
:10270C00F860B9607A603B60FB689B687B617B69B1
:10271C0023F47F437B613B681A027B681A43BB68D6
:10272C0013437A6913437B61FB687A699A6000BF33
:10273C001C37BD4680BC704780B485B000AF786054
:10274C0039607B6893F83C30012B01D1022341E0C6
:10275C007B68012283F83C207B68022283F83D20B1
:10276C007B681B685B68FB607B681B689B68BB6055
:10277C00FB6823F07003FB603B681B68FA6813432B
:10278C00FB607B681B68FA685A607B681B68144A9C
:10279C00934209D07B681B68B3F1804F04D07B68EF
:1027AC001B68104A93420CD1BB6823F08003BB60BA
:1027BC003B685B68BA681343BB607B681B68BA688C
:1027CC009A607B68012283F83D207B68002283F8A5
:1027DC003C20002318461437BD4680BC704700BF10
:1027EC00002C01400004004080B483B000AF78603E
:1027FC0000BF0C37BD4680BC704780B483B000AFBF
:10280C00786000BF0C37BD4680BC704770B50026A1
:10281C000C4D0D4C641BA410A64209D100F022F8FB
:10282C0000260A4D0A4C641BA410A64205D170BDAB
:10283C0055F8043B98470136EEE755F8043B9847AA
:10284C000136F2E7C4280008C4280008C428000890
:10285C00C828000803460244934200D1704703F88D
:10286C00011BF9E7F8B500BFF8BC08BC9E467047E1
:0C287C00F8B500BFF8BC08BC9E467047D1
:1028880048656C6C6F20576F726C640046726F6D90
:1028980020424B0002030405060708090A0B0C0D29
:1028A8000E0F1010000000000000000001020304D9
:0C28B800060708090000000001020304EC
:0428C40031010008D6
:0428C8000D010008F6
:0C28CC000024F4001000000001000000D7
:04000005080008E106
:00000001FF
