:020000040800F2
:100000000028002085090008950600089B060008C6
:10001000A1060008A7060008AD06000800000000C1
:10002000000000000000000000000000B30600080F
:10003000BF06000800000000CB060008D706000835
:10004000CD090008CD090008CD090008CD09000838
:10005000CD090008CD090008CD090008CD09000828
:10006000CD090008CD090008CD090008CD09000818
:10007000CD090008CD090008CD090008CD09000808
:10008000CD090008CD090008CD090008CD090008F8
:10009000CD090008CD090008CD090008CD090008E8
:1000A000CD090008CD090008CD090008CD090008D8
:1000B000E5060008CD09000800000000F906000868
:1000C0000D0700080000000000000000CD09000836
:1000D00000000000CD090008210700080000000012
:1000E000CD090008CD090008CD0900080000000076
:1000F0000000000000000000000000000000000000
:0C01000000000000000000005FF808F1A3
:10010C0010B5054C237833B9044B13B10448AFF345
:10011C0000800123237010BD70000020000000003F
:10012C00D856000808B5034B1BB103490348AFF37D
:10013C00008008BD0000000074000020D8560008A4
:10014C0080B588B000AF07F1100300221A605A6026
:10015C009A60DA60294B9B69284A43F0200393612B
:10016C00264B9B6903F02003FB60FB68234B9B69C8
:10017C00224A43F004039361204B9B6903F0040370
:10018C00BB60BB681D4B9B691C4A43F00803936121
:10019C001A4B9B6903F008037B607B680022732178
:1001AC00174800F0DBFF73233B6101237B610023C5
:1001BC00BB610223FB6107F110031946104800F0E4
:1001CC0051FE4FF480633B6100237B610023BB61D4
:1001DC0007F1100319460A4800F044FE20233B6146
:1001EC0000237B610123BB6107F11003194605480D
:1001FC0000F038FE00BF2037BD4680BD0010024025
:10020C0000080140000C014080B500AF124B134AAE
:10021C001A60114B124A5A600F4B00229A600E4B17
:10022C000022DA600C4B4FF480421A610A4B002218
:10023C005A61094B00229A61074B0022DA61064B86
:10024C0000221A62044800F0A1FF0346002B01D0E3
:10025C0000F050F900BF80BD8C000020005400401D
:10026C00A086010080B58AB000AF786007F1140356
:10027C0000221A605A609A60DA607B681B68254A13
:10028C00934242D1244B9B69234A43F00803936168
:10029C00214B9B6903F008033B613B694FF44073AE
:1002AC007B611223BB610023FB6107F11403194628
:1002BC001A4800F0D7FD1A4B5B687B627B6A43F0EF
:1002CC00E0637B627B6A43F002037B62144A7B6AC5
:1002DC005360114BDB69104A43F40013D3610E4B8E
:1002EC00DB6903F40013FB60FB68002200211F2074
:1002FC0000F0C5FC1F2000F0DEFC002200212020B5
:10030C0000F0BDFC202000F0D6FC00BF2837BD4615
:10031C0080BD00BF0054004000100240000C0140A2
:10032C0000000140B0B594B002AF0023FB6207F1AE
:10033C00300300221A605A609A60DA601A611A75EA
:10034C003D4BBB623D4B07F10C041D460FCD0FC45A
:10035C0095E8070003C42280394A3B4607CA03C309
:10036C001A800233120C1A7000F02CFB00F072F899
:10037C00FFF7E6FE00F014FA00F082FAFFF744FFF4
:10038C00304803F08BFC002387F847304FF47A7029
:10039C0000F07AFB07F10C014FF47A731A222A4809
:1003AC0004F05DF8012387F8473035E04FF0FF3358
:1003BC000093042300229C21244801F02BF80346CF
:1003CC0087F8463097F84630002B08D007F1280103
:1003DC004FF47A7304221C4804F041F813E097F8A8
:1003EC004630002B0FD197F8472007F12C03184902
:1003FC00184604F0F1FC07F12C014FF47A73192222
:10040C00114804F02CF84FF47A7000F03DFB97F88B
:10041C004730013387F8473097F94730002BC5DA5E
:10042C0039464FF47A730B22074804F018F800236E
:10043C0018464837BD46B0BD202D2000F8560008A0
:10044C001457000820040020680400208C000020B1
:10045C00F056000880B590B000AF07F118032822C1
:10046C000021184604F0B0FC3B1D00221A605A60B3
:10047C009A60DA601A610123BB614FF48033FB612F
:10048C0000233B620123BB6202237B634FF4803366
:10049C00BB630023FB6307F11803184602F094FFBB
:1004AC000346002B01D000F025F80F237B600223BC
:1004BC00BB608023FB604FF480633B6100237B6156
:1004CC003B1D0021184603F001FA0346002B01D016
:1004DC0000F010F800BF4037BD4680BD80B582B03B
:1004EC0000AF786000F06CF800F00AF800BF083735
:1004FC00BD4680BD80B400AF72B600BFFEE7000001
:10050C0080B483B000AF00237B6048E02A497A684E
:10051C0013469B0013449B000B4404331B68002BB5
:10052C0013D025497A6813469B0013449B000B4457
:10053C0004331B68591E20487A6813469B001344E9
:10054C009B0003440433196026E01B497A68134668
:10055C009B0013449B000B440833196816487A68B7
:10056C0013469B0013449B00034404331960124947
:10057C007A6813469B0013449B000B440C331B7886
:10058C000133D8B20C497A6813469B0013449B0084
:10059C000B440C3302461A707B6801337B60074BAB
:1005AC001B781A467B689342B0DB00BF00BF0C3748
:1005BC00BD4680BC704700BFE00000200004002056
:1005CC0080B400AF194B1B68002B0BDD174B1B685D
:1005DC00013B164A1360154B1B68002B02DC144BB5
:1005EC0001221A60134B1B68002B0BDD114B1B688F
:1005FC00013B104A13600F4B1B68002B02DC0E4BA7
:10060C0001221A600D4B1B68002B0BDD0B4B1B687A
:10061C00013B0A4A1360094B1B68002B02DC084B98
:10062C0001221A6000BFBD4680BC70470404002044
:10063C00080400200C0400201004002014040020E6
:10064C001804002080B483B000AF0E4B9B690D4A98
:10065C0043F0010393610B4B9B6903F001037B6037
:10066C007B68084BDB69074A43F08053D361054B29
:10067C00DB6903F080533B603B6800BF0C37BD4621
:10068C0080BC70470010024080B400AFFEE780B41D
:10069C0000AFFEE780B400AFFEE780B400AFFEE72A
:1006AC0080B400AFFEE780B400AF00BFBD4680BC95
:1006BC00704780B400AF00BFBD4680BC704780B4AB
:1006CC0000AF00BFBD4680BC704780B500AF00F0E6
:1006DC00BFF900BF80BD000080B500AF024803F039
:1006EC0029FB00BF80BD00BF2004002080B500AFF7
:1006FC00024800F08DFF00BF80BD00BF8C000020C1
:10070C0080B500AF024801F0F4F800BF80BD00BF17
:10071C008C00002080B500AF024803F033FF00BF0F
:10072C0080BD00BF6804002080B586B000AF786043
:10073C00144A154BD31A7B617B693B61134B1B68C5
:10074C00002B02D1114B124A1A60104B1A687B68AD
:10075C0013443A699A4207D204F00CFB03460C226C
:10076C001A604FF0FF3309E0084B1B68FB60074B26
:10077C001A687B681344054A1360FB6818461837DF
:10078C00BD4680BD00280020000400001C04002091
:10079C00C004002080B400AF00BFBD4680BC7047D1
:1007AC0080B586B000AF07F1080300221A605A60CA
:1007BC009A60DA603B4600221A605A601D4B4FF07B
:1007CC0080421A601B4B41F63F725A60194B002253
:1007DC009A60184B0922DA60164B00221A61154BED
:1007EC0080229A61134803F009FA0346002B01D0CA
:1007FC00FFF780FE4FF48053BB6007F108031946E6
:10080C000C4803F09FFB0346002B01D0FFF772FE50
:10081C0000233B6000237B603B461946054803F0F0
:10082C0067FD0346002B01D0FFF764FE00BF1837AD
:10083C00BD4680BD2004002080B584B000AF786038
:10084C007B681B68B3F1804F13D10C4BDB690B4AEF
:10085C0043F00103D361094BDB6903F00103FB6037
:10086C00FB68002200211C2000F009FA1C2000F07B
:10087C0022FA00BF1037BD4680BD00BF00100240F9
:10088C0080B500AF114B124A1A60104B4FF4165240
:10089C005A600E4B00229A600C4B0022DA600B4B14
:1008AC0000221A61094B0C225A61084B00229A61F2
:1008BC00064B0022DA61054803F084FD0346002B49
:1008CC0001D0FFF717FE00BF80BD00BF68040020F9
:1008DC000044004080B588B000AF786007F1100389
:1008EC0000221A605A609A60DA607B681B681F4AA3
:1008FC00934237D11E4BDB691D4A43F40033D3615D
:10090C001B4BDB6903F40033FB60FB68184B9B69E2
:10091C00174A43F004039361154B9B6903F00403DE
:10092C00BB60BB6804233B6102237B610323FB6137
:10093C0007F1100319460F4800F094FA08233B61A5
:10094C0000237B610023BB6107F1100319460948A2
:10095C0000F088FA00220021262000F090F92620D1
:10096C0000F0A9F900BF2037BD4680BD004400400F
:10097C0000100240000801400C480D490D4A0023AC
:10098C0002E0D458C4500433C4188C42F9D30A4A38
:10099C000A4C002301E013600432A242FBD3FFF7A0
:1009AC00F9FE04F0EDF9FFF7BDFC704700000020E4
:1009BC00700000208457000870000020C004002044
:1009CC00FEE7000080B500AF084B1B68074A43F0F8
:1009DC0010031360032000F047F90F2000F008F813
:1009EC00FFF730FE0023184680BD00BF00200240F8
:1009FC0080B582B000AF7860124B1A68124B1B782E
:100A0C0019464FF47A73B3FBF1F3B2FBF3F31846C8
:100A1C0000F05FF90346002B01D001230EE07B6848
:100A2C000F2B0AD8002279684FF0FF3000F027F91D
:100A3C00064A7B681360002300E001231846083740
:100A4C00BD4680BD000000200800002004000020EE
:100A5C0080B400AF054B1B781A46054B1B6813443A
:100A6C00034A136000BFBD4680BC704708000020DD
:100A7C00AC04002080B400AF024B1B681846BD4686
:100A8C0080BC7047AC04002080B584B000AF7860A7
:100A9C00FFF7F0FFB8607B68FB60FB68B3F1FF3FCA
:100AAC0005D00A4B1B781A46FB681344FB6000BF49
:100ABC00FFF7E0FF0246BB68D31AFA689A42F7D8F0
:100ACC0000BF00BF1037BD4680BD00BF080000202E
:100ADC0080B485B000AF78607B6803F00703FB60DF
:100AEC000C4BDB68BB60BA684FF6FF031340BB606E
:100AFC00FB681A02BB68134343F0BF6343F4003333
:100B0C00BB60044ABB68D36000BF1437BD4680BCD1
:100B1C00704700BF00ED00E080B400AF044BDB6811
:100B2C001B0A03F007031846BD4680BC704700BF84
:100B3C0000ED00E080B483B000AF0346FB7197F981
:100B4C000730002B0BDBFB7903F01F02064997F9EA
:100B5C0007305B09012000FA02F241F8232000BFA4
:100B6C000C37BD4680BC704700E100E080B483B018
:100B7C0000AF03463960FB7197F90730002B0ADB95
:100B8C003B68DAB20C4997F907301201D2B20B4428
:100B9C0083F800230AE03B68DAB20849FB7903F0DA
:100BAC000F03043B1201D2B20B441A7600BF0C3770
:100BBC00BD4680BC704700BF00E100E000ED00E0E6
:100BCC0080B489B000AFF860B9607A60FB6803F05C
:100BDC000703FB61FB69C3F10703042B28BF042344
:100BEC00BB61FB690433062B02D9FB69033B00E0B4
:100BFC0000237B614FF0FF32BB6902FA03F3DA4347
:100C0C00BB681A407B699A404FF0FF317B6901FA4F
:100C1C0003F3D9437B680B40134318462437BD4676
:100C2C0080BC704780B582B000AF78607B68013BB8
:100C3C00B3F1807F01D301230FE00A4A7B68013BAB
:100C4C0053600F214FF0FF30FFF790FF054B002250
:100C5C009A60044B07221A60002318460837BD46D9
:100C6C0080BD00BF10E000E080B582B000AF7860BE
:100C7C007868FFF72DFF00BF0837BD4680BD80B5F3
:100C8C0086B000AF0346B9607A60FB7300237B61CA
:100C9C00FFF742FF78617A68B9687869FFF790FFCF
:100CAC00024697F90F3011461846FFF75FFF00BF59
:100CBC001837BD4680BD80B582B000AF0346FB71CE
:100CCC0097F907301846FFF735FF00BF0837BD46C8
:100CDC0080BD80B582B000AF78607868FFF7A2FF66
:100CEC00034618460837BD4680BD80B485B000AFBA
:100CFC0078600023FB737B6893F82130022B08D0BB
:100D0C007B6804229A637B68002283F820200123ED
:100D1C0020E07B681B681A687B681B6822F00E0257
:100D2C001A607B681B681A687B681B6822F00102DA
:100D3C001A607B681A6C7B68DB6B012101FA02F28A
:100D4C005A607B68012283F821207B68002283F89B
:100D5C002020FB7B18461437BD4680BC7047000032
:100D6C0080B584B000AF78600023FB737B6893F888
:100D7C002130022B05D07B6804229A630123FB737C
:100D8C0051E07B681B681A687B681B6822F00E02B6
:100D9C001A607B681B681A687B681B6822F001026A
:100DAC001A607B681B68224A934229D07B681B68B7
:100DBC00204A934222D07B681B681F4A93421AD068
:100DCC007B681B681D4A934212D07B681B681C4AC7
:100DDC0093420AD07B681B681A4A934202D14FF4A3
:100DEC0080130EE04FF080730BE04FF4803308E07B
:100DFC004FF4805305E04FF4807302E0102300E0C1
:100E0C000123114A53607B68012283F821207B68FF
:100E1C00002283F820207B685B6B002B03D07B685F
:100E2C005B6B78689847FB7B18461037BD4680BDD6
:100E3C00080002401C000240300002404400024006
:100E4C00580002406C0002400000024080B483B0A5
:100E5C0000AF78607B6893F8213018460C37BD469C
:100E6C0080BC704780B48BB000AF786039600023D1
:100E7C007B6200233B6261E101227B6A02FA03F38D
:100E8C00FB613B681B68FA691340BB61BA69FB697B
:100E9C009A4240F050813B685B68974A93425ED01F
:100EAC00954A934275D8954A934258D0934A9342A7
:100EBC006FD8934A934252D0914A934269D8914A3F
:100ECC0093424CD08F4A934263D88F4A934246D078
:100EDC008D4A93425DD8122B2AD8122B59D801A2D5
:100EEC0052F823F06B0F0008450F0008570F00084D
:100EFC00990F00089F0F00089F0F00089F0F000814
:100F0C009F0F00089F0F00089F0F00089F0F0008FD
:100F1C009F0F00089F0F00089F0F00089F0F0008ED
:100F2C009F0F00089F0F00084D0F0008610F00086D
:100F3C00764A934213D02CE03B68DB683B6229E095
:100F4C003B68DB6804333B6224E03B68DB680833B6
:100F5C003B621FE03B68DB680C333B621AE03B688A
:100F6C009B68002B02D104233B6213E03B689B6817
:100F7C00012B05D108233B627B68FA691A6109E0F1
:100F8C0008233B627B68FA695A6103E000233B62E9
:100F9C0000E000BFBB69FF2B01D87B6801E07B68D8
:100FAC0004337B61BB69FF2B02D87B6A9B0002E098
:100FBC007B6A083B9B003B617B691A680F213B698C
:100FCC0001FA03F3DB431A40396A3B6901FA03F374
:100FDC001A437B691A603B685B6803F08053002BF3
:100FEC0000F0A9804A4B9B69494A43F00103936185
:100FFC00474B9B6903F00103BB60BB68454A7B6AA6
:10100C009B08023352F82330FB607B6A03F0030326
:10101C009B000F2202FA03F3DB43FA681340FB60D8
:10102C007B683D4A93420DD07B683C4A934207D083
:10103C007B683B4A934201D1022304E0032302E084
:10104C00012300E000237A6A02F00302920093402D
:10105C00FA681343FB602F497B6A9B080233FA68DA
:10106C0041F823203B685B6803F48033002B06D0E7
:10107C002C4B1A682B49BB6913430B6006E0294BB8
:10108C001A68BB69DB43274913400B603B685B68FC
:10109C0003F40033002B06D0224B5A682149BB695C
:1010AC0013434B6006E01F4B5A68BB69DB431D4979
:1010BC0013404B603B685B6803F48013002B06D035
:1010CC00184B9A681749BB6913438B6006E0154BA4
:1010DC009A68BB69DB43134913408B603B685B68C0
:1010EC0003F40013002B1FD00E4BDA680D49BB69BB
:1010FC001343CB601FE000BF000032100000311022
:10110C00000022100000211000001210000011102D
:10111C00001002400000014000080140000C01409A
:10112C0000100140000401400B4BDA68BB69DB4343
:10113C0009491340CB607B6A01337B623B681A68B8
:10114C007B6A22FA03F3002B7FF496AE00BF00BF3C
:10115C002C37BD4680BC70470004014080B483B07E
:10116C0000AF78600B467B8013467B707B78002B3E
:10117C0003D07A887B681A6103E07B881A047B6849
:10118C001A6100BF0C37BD4680BC704780B584B077
:10119C0000AF78607B68002B01D101232BE17B68C9
:1011AC0093F83D30DBB2002B06D17B68002283F82C
:1011BC003C207868FFF756F87B68242283F83D20A2
:1011CC007B681B681A687B681B6822F001021A6036
:1011DC007B681B681A687B681B6842F400421A60C3
:1011EC007B681B681A687B681B6822F400421A60D3
:1011FC0002F0BEFCF8607B685B68814A934207D8BA
:10120C00FB68804A934294BF01230023DBB206E0C3
:10121C00FB687D4A934294BF01230023DBB2002B71
:10122C0001D00123E7E0FB68784AA2FB03239B0C67
:10123C00BB607B681B685B6823F03F017B681B68A5
:10124C00BA680A435A607B681B681B6A23F03F012B
:10125C007B685B686A4A934202D8BB68013309E039
:10126C00BB684FF4967202FB03F3694AA2FB03239B
:10127C009B0901337A6812680B4313627B681B6805
:10128C00DB6923F44F4222F0FF027B685B685C4908
:10129C008B4219D8FB68591E7B685B685B00B1FBFD
:1012AC00F3F3591C40F6FC730B40002B0AD0FB687F
:1012BC00591E7B685B685B00B1FBF3F30133C3F32E
:1012CC000B0351E004234FE07B689B68002B11D18A
:1012DC00FB68581E7B6859680B465B000B44B0FBDF
:1012EC00F3F30133C3F30B03002B0CBF01230023D7
:1012FC00DBB212E0FB68581E7B6859680B469B00FA
:10130C000B4499000B44B0FBF3F30133C3F30B0311
:10131C00002B0CBF01230023DBB2002B01D00123D7
:10132C0022E07B689B68002B0ED1FB68581E7B6803
:10133C0059680B465B000B44B0FBF3F30133C3F36A
:10134C000B0343F400430FE0FB68581E7B6859689D
:10135C000B469B000B4499000B44B0FBF3F3013399
:10136C00C3F30B0343F44043796809681343CB611F
:10137C007B681B681B6823F0C0017B68DA697B689B
:10138C001B6A1A437B681B680A431A607B681B68DC
:10139C009B6823F4034323F0FF037A6811697A688E
:1013AC00D26811437A6812680B4393607B681B68A0
:1013BC00DB6823F0FF017B685A697B689B691A43E1
:1013CC007B681B680A43DA607B681B681A687B6859
:1013DC001B6842F001021A607B6800221A647B6869
:1013EC00202283F83D207B6800221A637B68002250
:1013FC0083F83E20002318461037BD4680BD00BF41
:10140C00A08601007F841E00FF083D0083DE1B4385
:10141C00D34D621080B588B002AFF8607A601A467E
:10142C000B467B8113463B81FFF724FB7861FB68FD
:10143C0093F83D30DBB2202B40F0E0807B690093C9
:10144C00192301227049F86801F0ECFD0346002BCA
:10145C0001D00223D3E0FB6893F83C30012B01D17F
:10146C000223CCE0FB68012283F83C20FB681B685C
:10147C001B6803F00103012B07D0FB681B681A687B
:10148C00FB681B6842F001021A60FB681B681A6853
:10149C00FB681B6822F400621A60FB68212283F847
:1014AC003D20FB68102283F83E20FB6800221A6462
:1014BC00FB687A685A62FB683A895A85FB685B8DCF
:1014CC009AB2FB681A85FB68504ADA6279897B69A3
:1014DC003A6AF86801F07CFC0346002B01D001232A
:1014EC008DE000233B61FB681B685B693B61FB681B
:1014FC001B689B693B613B6966E07A69396AF868ED
:10150C0001F066FE0346002B0DD0FB681B6C042B10
:10151C0007D1FB681B681A68FB681B6842F40072F1
:10152C001A6001236BE0FB685B6A1A78FB681B6826
:10153C001A61FB685B6A5A1CFB685A62FB685B8D1C
:10154C009BB2013B9AB2FB685A85FB681B8D013B31
:10155C009AB2FB681A85FB681B685B6903F004038D
:10156C00042B1BD1FB681B8D002B17D0FB685B6A0F
:10157C001A78FB681B681A61FB685B6A5A1CFB686B
:10158C005A62FB685B8D9BB2013B9AB2FB685A8531
:10159C00FB681B8D013B9AB2FB681A857A69396A24
:1015AC00F86801F056FE0346002B0DD0FB681B6C4F
:1015BC00042B07D1FB681B681A68FB681B6842F494
:1015CC0000721A6001231AE0FB681B8D002B94D16A
:1015DC00FB681B681A68FB681B6842F400721A608F
:1015EC00FB68202283F83D20FB68002283F83E2014
:1015FC00FB68002283F83C20002300E002231846FD
:10160C001837BD4680BD00BF020010000000FFFF70
:10161C0080B588B000AF78600023BB617B681B6825
:10162C005B687B617B68DB6A3B617B6893F83E306F
:10163C00FB737B6893F83D30BB73FB7B102B03D0A3
:10164C00FB7B402B40F0C1807B681B689B69BB61B6
:10165C007B681B685B69FB61FB6903F00103002B72
:10166C000DD13B69B3F52A0F03D03B69B3F12A4F77
:10167C0001D1012300E00023012B00F03281FB6932
:10168C0003F00103002B0CD07B695B0A03F0010310
:10169C00002B06D0786801F07DFE786800F077FDAD
:1016AC0092E0FB69DB0803F00103002B09D07B6996
:1016BC005B0A03F00103002B03D0786800F0ECFD0B
:1016CC0082E0FB695B0803F00103002B09D07B6906
:1016DC005B0A03F00103002B03D0786800F005FED1
:1016EC0072E0BB699B0803F00103002B3BD07B68C5
:1016FC001B685B6803F40063B3F5006F00F0F380C4
:10170C00FB69DB0903F00103002B0FD07B699B0AFB
:10171C0003F00103002B09D0FB699B0803F00103C4
:10172C00002B03D1786800F0F1F94DE0FB699B08C0
:10173C0003F00103002B00F0D6807B695B0A03F0F9
:10174C000103002B00F0CF80BB7B212B03D17868E9
:10175C0000F078FAC7E0FB7B402B40F0C48078683F
:10176C0000F0E6FABFE07B681B685B6803F400637B
:10177C00B3F5006F00F0B780FB699B0903F0010320
:10178C00002B0FD07B699B0A03F00103002B09D0BF
:10179C00FB699B0803F00103002B03D1786800F070
:1017AC005BFB11E0FB699B0803F00103002B00F0CD
:1017BC009A807B695B0A03F00103002B00F0938095
:1017CC00786800F0FAFB8EE08DE07B681B6C002BD8
:1017DC0004D07B681B685B69FB6107E07B681B6856
:1017EC009B69BB617B681B685B69FB61FB695B0880
:1017FC0003F00103002B12D07B695B0A03F0010399
:10180C00002B0CD07B681B6C002B03D07B681B68F7
:10181C009B69BB61B969786800F0BEFF66E0FB6943
:10182C001B0903F00103002B09D07B695B0A03F051
:10183C000103002B03D0786800F0F8FF56E0BB7B67
:10184C00212B02D0BB7B292B25D1FB69DB0903F0B3
:10185C000103002B0FD07B699B0A03F00103002BC3
:10186C0009D0FB699B0803F00103002B03D17868B6
:10187C0000F0D6FE39E0FB699B0803F00103002B56
:10188C0033D07B695B0A03F00103002B2DD0786801
:10189C0000F003FF29E0FB699B0903F00103002B17
:1018AC000FD07B699B0A03F00103002B09D0FB6965
:1018BC009B0803F00103002B03D1786800F00DFFA7
:1018CC0014E0FB699B0803F00103002B0ED07B692D
:1018DC005B0A03F00103002B08D0786800F03BFF93
:1018EC0004E000BF02E000BF00E000BF2037BD46AF
:1018FC0080BD80B58AB000AF78607B681B685B697F
:10190C003B627B681B685B68FB6100237B627B68C6
:10191C0093F83E30FB763B6A1B0A03F00103002B65
:10192C0016D0FB691B0A03F00103002B10D07B6A55
:10193C0043F001037B627B681B686FF480725A6111
:10194C007B681B681A687B681B6842F400421A604B
:10195C003B6A5B0A03F00103002B0ED0FB691B0AE8
:10196C0003F00103002B08D07B6A43F002037B6277
:10197C007B681B686FF400725A613B6A9B0A03F028
:10198C000103002B3FD0FB691B0A03F00103002B62
:10199C0039D0FB7EBB767B685B8D9BB27B617B68B1
:1019AC0093F83D30FB747B681B6BFB60BB7E202B7C
:1019BC0012D17B69002B0FD1FB7C212B08D0FB7C37
:1019CC00292B05D0FB7C282B06D1FB68212B03D1BE
:1019DC00786801F05BF816E07B681B686FF4806236
:1019EC005A617B6A43F004037B62FB7E102B02D0AE
:1019FC00FB7E402B07D17B681B681A687B681B68D1
:101A0C0042F400721A603B6ADB0A03F00103002BFC
:101A1C000ED0FB691B0A03F00103002B08D07B6A74
:101A2C0043F008037B627B681B686FF400625A61A9
:101A3C007B6A002B08D07B681A6C7B6A1A437B6824
:101A4C001A64786801F092F800BF2837BD4680BD53
:101A5C0080B483B000AF786000BF0C37BD4680BC4B
:101A6C00704780B483B000AF786000BF0C37BD46C0
:101A7C0080BC704780B483B000AF786000BF0C3777
:101A8C00BD4680BC704780B483B000AF786000BFA7
:101A9C000C37BD4680BC704780B483B000AF786013
:101AAC000B46FB7013463B8000BF0C37BD4680BC19
:101ABC00704780B483B000AF786000BF0C37BD4670
:101ACC0080BC704780B483B000AF786000BF0C3727
:101ADC00BD4680BC704780B483B000AF786000BF57
:101AEC000C37BD4680BC704780B483B000AF7860C3
:101AFC0000BF0C37BD4680BC704780B483B000AFCC
:101B0C00786000BF0C37BD4680BC704780B584B090
:101B1C0000AF78607B6893F83D30FB737B6893F87B
:101B2C003E30BB737B68DB6ABB607B681B8D002B14
:101B3C0050D1FB7B212B4DD1BB68082B1DD0BB6832
:101B4C00202B1AD0BB6813F5803F16D07B681B681E
:101B5C005A687B681B6822F4E0625A607B68112229
:101B6C001A637B68002283F83E207B68202283F86E
:101B7C003D207868FFF76CFF60E07B681B685A6853
:101B8C007B681B6822F4E0625A607B681B681A68E9
:101B9C007B681B6842F400721A607B6800221A632F
:101BAC007B68202283F83D207B6893F83E30DBB2C3
:101BBC00402B07D17B68002283F83E207868FFF722
:101BCC0081FF3BE07B68002283F83E207868FFF7BA
:101BDC003FFF33E0FB7B212B05D0BB7B402B2DD172
:101BEC00FB7B222B2AD17B685B8D9BB2002B08D10F
:101BFC007B681B685A687B681B6822F480625A6099
:101C0C001CE07B6893F83E30DBB2402B03D1786844
:101C1C0000F08EF812E07B685B6A1A787B681B68B0
:101C2C001A617B685B6A5A1C7B685A627B685B8DA5
:101C3C009BB2013B9AB27B685A85FFE700BF103715
:101C4C00BD4680BD80B584B000AF78607B68DB6A30
:101C5C00FB607B6893F83D30DBB2212B64D17B6851
:101C6C005B8D9BB2002B12D07B685B6A1A787B6809
:101C7C001B681A617B685B6A5A1C7B685A627B68BA
:101C8C005B8D9BB2013B9AB27B685A854CE0FB683A
:101C9C00082B1DD0FB68202B1AD0FB6813F5803F56
:101CAC0016D07B681B685A687B681B6822F4E0625C
:101CBC005A607B6811221A637B68002283F83E20ED
:101CCC007B68202283F83D207868FFF7C1FE2BE06B
:101CDC007B681B685A687B681B6822F4E0625A6058
:101CEC007B681B681A687B681B6842F400721A6078
:101CFC007B6800221A637B68202283F83D207B6876
:101D0C0093F83E30DBB2402B07D17B68002283F87E
:101D1C003E207868FFF7D6FE06E07B68002283F849
:101D2C003E207868FFF794FE00BF1037BD4680BD9B
:101D3C0080B584B000AF78607B6893F83D30FB735E
:101D4C007B681B6D002B1DD17B68DB6C012B0BD1D1
:101D5C007B689B6CDAB27B681B681A617B681B6DB5
:101D6C009A1C7B681A6573E07B689B6C9BB21B1298
:101D7C00DAB27B681B681A617B681B6D5A1C7B6826
:101D8C001A6565E07B681B6D012B0BD17B689B6C26
:101D9C00DAB27B681B681A617B681B6D5A1C7B6806
:101DAC001A6555E07B681B6D022B51D1FB7B222BF6
:101DBC000DD17B681B681A687B681B6842F48072C3
:101DCC001A607B681B6D5A1C7B681A6540E07B6847
:101DDC005B8D9BB2002B15D0FB7B212B12D17B682A
:101DEC005B6A1A787B681B681A617B685B6A5A1C91
:101DFC007B685A627B685B8D9BB2013B9AB27B68B5
:101E0C005A8525E07B685B8D9BB2002B20D1FB7B38
:101E1C00212B1DD17B681B685A687B681B6822F4D8
:101E2C00E0625A607B681B681A687B681B6842F426
:101E3C0000721A607B6800221A637B68202283F888
:101E4C003D207B68002283F83E207868FFF73AFE3D
:101E5C0000BF1037BD4680BD80B584B000AF786040
:101E6C007B6893F83D30DBB2222B40F0A2807B687C
:101E7C005B8D9BB2FB60FB68032B21D97B681B68D5
:101E8C001A697B685B6AD2B21A707B685B6A5A1CEF
:101E9C007B685A627B685B8D9BB2013B9AB27B6814
:101EAC005A857B685B8D9BB2032B40F082807B68EC
:101EBC001B685A687B681B6822F480625A6078E061
:101ECC007B68DB6A022B74D0FB68012B02D0FB68A9
:101EDC00002B6ED1786801F0FDF90346002B42D13E
:101EEC007B681B681A687B681B6822F480621A6026
:101EFC007B681B685A687B681B6822F4E0625A6036
:101F0C007B681B681A697B685B6AD2B21A707B6843
:101F1C005B6A5A1C7B685A627B685B8D9BB2013B87
:101F2C009AB27B685A857B68202283F83D207B68B7
:101F3C0093F83E30DBB2402B0AD17B68002283F849
:101F4C003E207B6800221A637868FFF7C4FD30E0FE
:101F5C007B68002283F83E207B6812221A63786823
:101F6C00FFF77FFD25E07B681B685A687B681B6860
:101F7C0022F4E0625A607B681B681A697B685B6AB2
:101F8C00D2B21A707B685B6A5A1C7B685A627B6897
:101F9C005B8D9BB2013B9AB27B685A857B68202291
:101FAC0083F83D207B68002283F83E207868FFF799
:101FBC009BFD00BF1037BD4680BD80B584B000AF1F
:101FCC0078607B68DB6AFB607B685B8D9BB2042B63
:101FDC001BD17B681B685A687B681B6822F4806283
:101FEC005A607B681B681A697B685B6AD2B21A708C
:101FFC007B685B6A5A1C7B685A627B685B8D9BB200
:10200C00013B9AB27B685A85BDE07B685B8D9BB2C5
:10201C00032B29D17B681B685A687B681B6822F4E8
:10202C0080625A60FB68042B0AD0FB68022B07D035
:10203C007B681B681A687B681B6822F480621A60D4
:10204C007B681B681A697B685B6AD2B21A707B6802
:10205C005B6A5A1C7B685A627B685B8D9BB2013B46
:10206C009AB27B685A858EE07B685B8D9BB2022BA3
:10207C0076D1FB68012B02D0FB68102B08D17B6852
:10208C001B681A687B681B6822F480621A6019E06E
:10209C00FB68042B02D0FB68022B08D17B681B6801
:1020AC001A687B681B6842F480621A600AE0FB685D
:1020BC00102B07D07B681B681A687B681B6842F47E
:1020CC0000721A607B681B681A697B685B6AD2B203
:1020DC001A707B685B6A5A1C7B685A627B685B8DE2
:1020EC009BB2013B9AB27B685A857B681B681A6964
:1020FC007B685B6AD2B21A707B685B6A5A1C7B681D
:10210C005A627B685B8D9BB2013B9AB27B685A85A5
:10211C007B681B685A687B681B6822F440725A60A3
:10212C007B68202283F83D207B6893F83E30DBB23D
:10213C00402B0AD17B68002283F83E207B6800226A
:10214C001A637868FFF7C7FC1DE07B68002283F8F0
:10215C003E207B6812221A637868FFF782FC12E03B
:10216C007B681B681A697B685B6AD2B21A707B68E1
:10217C005B6A5A1C7B685A627B685B8D9BB2013B25
:10218C009AB27B685A8500BF1037BD4680BD80B4BB
:10219C0083B000AF78607B6893F83E30DBB2402BA5
:1021AC0017D17B681B6D002B09D17B685B6CDBB294
:1021BC001A467B681B6802F0FE021A6167E07B68B6
:1021CC005B6CDBB243F00103DAB27B681B681A610B
:1021DC005DE07B681B69B3F5804F33D17B6893F866
:1021EC003D30DBB2212B09D17B685B6CDBB21A462C
:1021FC007B681B6802F0FE021A6108E07B685B6C6E
:10220C00DBB243F00103DAB27B681B681A617B68AE
:10221C005B6B002B04D07B685B6B9B6A002B08D13B
:10222C007B689B6B002B32D07B689B6B9B6A002B73
:10223C002DD07B681B685A687B681B6842F400626F
:10224C005A6024E07B681B6D002B0ED17B685B6CA5
:10225C009BB2DB11DBB203F00603DBB263F00F03BE
:10226C00DAB27B681B681A6111E07B681B6D012B6D
:10227C000DD17B685B6C9BB2DB11DBB203F0060308
:10228C00DBB263F00E03DAB27B681B681A6100BF25
:10229C000C37BD4680BC704780B483B000AF78600B
:1022AC007B685B6CDAB27B681B681A617B685B6B62
:1022BC00002B04D07B685B6B9B6A002B08D17B687E
:1022CC009B6B002B0CD07B689B6B9B6A002B07D005
:1022DC007B681B685A687B681B6842F400625A6012
:1022EC0000BF0C37BD4680BC704780B491B000AFC6
:1022FC0078607B6893F83E3087F83F307B68DB6A08
:10230C00BB637B681B6B7B637B6893F83D30DBB2F4
:10231C00222B40F074817B681B6D002B0FD197F83A
:10232C003F30402B0BD100233B637B681B685B6900
:10233C003B637B681B689B693B633B6B6BE17B6816
:10234C001B6D002B1DD17B681B69B3F5404F18D159
:10235C000023FB627B681B685B69FB627B681B6804
:10236C009B69FB62FB6A7B681B681A687B681B684D
:10237C0042F480721A607B681B6D5A1C7B681A656C
:10238C0049E17B685B8D9BB2002B13D10023BB62B0
:10239C007B681B685B69BB627B681B689B69BB6263
:1023AC00BB6A7B681B681A687B681B6842F4007206
:1023BC001A6020E17B685B8D9BB2012B40F08A8018
:1023CC00BB6B13F5803F37D17B681B681A687B6841
:1023DC001B6822F480621A607B681B685B6803F4DC
:1023EC000063B3F5006F13D17B681B681A687B68B8
:1023FC001B6822F480621A6000237B627B681B6876
:10240C005B697B627B681B689B697B627B6AF2E021
:10241C0000233B627B681B685B693B627B681B68C3
:10242C009B693B623B6A7B681B681A687B681B680C
:10243C0042F400721A60DEE0BB6B082B2ED0BB6B33
:10244C00202B2BD07B6B122B02D1BB6B012B25D1FC
:10245C00BB6B042B0ED0BB6B022B0BD0BB6B102BAE
:10246C0008D07B681B681A687B681B6822F4806242
:10247C001A6007E07B681B681A687B681B6842F46B
:10248C0080621A600023FB617B681B685B69FB61DF
:10249C007B681B689B69FB61FB69ACE07B681B6814
:1024AC001A687B681B6822F480621A600023BB6187
:1024BC007B681B685B69BB617B681B689B69BB6144
:1024CC00BB697B681B681A687B681B6842F40072E6
:1024DC001A6090E07B685B8D9BB2022B58D1BB6B72
:1024EC00042B21D0BB6B022B1ED0BB6B102B1BD033
:1024FC007B681B681A687B681B6842F400621A6070
:10250C0000237B617B681B685B697B617B681B6854
:10251C009B697B617B697B681B681A687B681B689D
:10252C0022F480621A6012E07B681B681A687B6870
:10253C001B6842F480621A6000233B617B681B6855
:10254C005B693B617B681B689B693B613B697B6892
:10255C001B685B6803F40063B3F5006F4BD1BB6B76
:10256C0013F5803F0BD0BB6B012B08D0BB6B082B3A
:10257C0005D0BB6B102B02D0BB6B202B3BD17B68E7
:10258C001B685A687B681B6842F480525A6032E0C0
:10259C007B681B681A687B681B6842F480621A604F
:1025AC007B681B685B6803F40063B3F5006F17D19D
:1025BC00BB6B13F5803F0BD0BB6B012B08D0BB6BF7
:1025CC00082B05D0BB6B102B02D0BB6B202B07D17B
:1025DC007B681B685A687B681B6842F480525A609F
:1025EC000023FB607B681B685B69FB607B681B6876
:1025FC009B69FB60FB687B6800221A650BE000237B
:10260C00BB607B681B685B69BB607B681B689B69F4
:10261C00BB60BB68FFE700BF4437BD4680BC70475A
:10262C0080B584B000AF78607B6893F83D30FB7365
:10263C007B685B8D9BB2002B2BD07B685B6A1A7816
:10264C007B681B681A617B685B6A5A1C7B685A62E0
:10265C007B685B8D9BB2013B9AB27B685A857B6829
:10266C005B8D9BB2002B14D1FB7B292B11D17B688A
:10267C001B685A687B681B6822F480625A607B680E
:10268C0021221A637B68282283F83D207868FFF7A3
:10269C00F1F900BF1037BD4680BD80B483B000AFE8
:1026AC0078607B685B8D9BB2002B11D07B685B6A7A
:1026BC001A787B681B681A617B685B6A5A1C7B689A
:1026CC005A627B685B8D9BB2013B9AB27B685A85E0
:1026DC0000BF0C37BD4680BC704780B584B000AFDE
:1026EC0078607B6893F83D30FB737B685B8D9BB2A5
:1026FC00002B2CD07B681B681A697B685B6AD2B292
:10270C001A707B685B6A5A1C7B685A627B685B8DAB
:10271C009BB2013B9AB27B685A857B685B8D9BB2FE
:10272C00002B14D1FB7B2A2B11D17B681B685A68B8
:10273C007B681B6822F480625A607B6822221A63D1
:10274C007B68282283F83D207868FFF79CF900BF4E
:10275C001037BD4680BD80B483B000AF78607B6815
:10276C005B8D9BB2002B12D07B681B681A697B684F
:10277C005B6AD2B21A707B685B6A5A1C7B685A62BD
:10278C007B685B8D9BB2013B9AB27B685A8500BF1C
:10279C000C37BD4680BC704780B584B000AF786004
:1027AC0039600023FB737B6893F83D30DBB203F098
:1027BC002803282B27D17B681B685A687B681B6809
:1027CC0022F480625A603B689B0803F00103002BE3
:1027DC0001D10123FB733B68DB0903F00103002BE0
:1027EC0003D17B68DB68BB8102E07B689B69BB81A2
:1027FC007B68002283F83C20BA89FB7B19467868F9
:10280C00FFF74AF90EE00023BB607B681B685B692D
:10281C00BB607B681B689B69BB60BB687B680022E4
:10282C0083F83C2000BF1037BD4680BD80B584B016
:10283C0000AF78607B6893F83D30FB737B681B6856
:10284C005A687B681B6822F4E0625A600023BB6004
:10285C007B681B685B69BB607B681B681A687B685C
:10286C001B6842F001021A60BB687B681B681A681F
:10287C007B681B6822F480621A607B681B685B684B
:10288C0003F40063B3F5006F72D1FB7B222B02D0F3
:10289C00FB7B2A2B35D17B689B6B1B685B689AB2E0
:1028AC007B685A857B685B8D9BB2002B05D07B685F
:1028BC001B6C43F004027B681A647B681B685A68C3
:1028CC007B681B6822F400625A607B689B6B18461D
:1028DC00FEF7BCFA0346012B49D07B689B6B694A17
:1028EC005A637B689B6B1846FEF73AFA0346002B3B
:1028FC003DD07B689B6B5B6B7A68926B10469847FC
:10290C0035E07B685B6B1B685B689AB27B685A85A9
:10291C007B685B8D9BB2002B05D07B681B6C43F0F6
:10292C0004027B681A647B681B685A687B681B68A6
:10293C0022F400625A607B685B6B1846FEF786FADD
:10294C000346012B14D07B685B6B4E4A5A637B6841
:10295C005B6B1846FEF704FA0346002B08D07B6825
:10296C005B6B5B6B7A68526B1046984700E000BF5C
:10297C007B685B8D9BB2002B3ED07B681B685B69D0
:10298C0003F00403042B12D17B681B681A697B6863
:10299C005B6AD2B21A707B685B6A5A1C7B685A629B
:1029AC007B685B8D9BB2013B9AB27B685A857B68D6
:1029BC001B685B6903F04003402B12D17B681B68DA
:1029CC001A697B685B6AD2B21A707B685B6A5A1CA4
:1029DC007B685A627B685B8D9BB2013B9AB27B68C9
:1029EC005A857B685B8D9BB2002B05D07B681B6C7A
:1029FC0043F004027B681A647B681B6C002B03D0C9
:102A0C00786800F0B3F839E0FB7B2A2B09D17B689E
:102A1C0000221A637B68282283F83D207868FFF730
:102A2C0032F87B6893F83D30DBB2282B11D17B68F0
:102A3C00154ADA627B6800221A637B68202283F8CD
:102A4C003D207B68002283F83E207868FFF731F840
:102A5C0014E07B681B6B222B02D0FB7B222B0DD14D
:102A6C007B6800221A637B68202283F83D207B68F8
:102A7C00002283F83E207868FFF705F800BF103776
:102A8C00BD4680BDE12E00080000FFFF80B584B07C
:102A9C0000AF78607B6893F83D30FB737B68DB6A32
:102AAC00BB60BB68082B02D0BB68202B29D1FB7BF9
:102ABC00282B26D17B682C4ADA627B681B685A6803
:102ACC007B681B6822F4E0625A607B681B686FF4B9
:102ADC0080625A617B681B681A687B681B6822F4E9
:102AEC0080621A607B6800221A637B68202283F85C
:102AFC003D207B68002283F83E207868FEF7D9FFE2
:102B0C002EE0FB7B212B26D17B68174ADA627B688F
:102B1C0021221A637B68202283F83D207B680022E7
:102B2C0083F83E207B681B685A687B681B6822F41C
:102B3C00E0625A607B681B686FF480625A617B6844
:102B4C001B681A687B681B6822F480621A607868BC
:102B5C00FEF790FF04E07B681B686FF480625A619B
:102B6C0000BF1037BD4680BD0000FFFF80B584B0AC
:102B7C0000AF78607B6893F83D30FB737B6893F80B
:102B8C003E30BB73BB7B102B02D0BB7B402B0AD1DE
:102B9C00FB7B222B07D17B681B681A687B681B6840
:102BAC0022F400621A60FB7B03F02803282B07D168
:102BBC007B6800221A637B68282283F83D2015E08D
:102BCC007B681B685B6803F40063B3F5006F0AD085
:102BDC00FB7B602B07D07B68202283F83D207B6831
:102BEC00002283F83E207B6800221A637B681B68F6
:102BFC005B6803F40063B3F5006F61D17B681B68FD
:102C0C005A687B681B6822F400625A607B685B6BB5
:102C1C0093F82130012B20D07B685B6B6A4A5A6396
:102C2C007B685B6B1846FEF79BF80346002B00F0A5
:102C3C0089807B681B681A687B681B6822F001021C
:102C4C001A607B68202283F83D207B685B6B5B6B92
:102C5C007A68526B1046984774E07B689B6B5A4AB3
:102C6C005A637B689B6B1846FEF77AF80346002B79
:102C7C0068D07B681B685B6903F04003402B0BD169
:102C8C007B681B681A697B685B6AD2B21A707B68B6
:102C9C005B6A5A1C7B685A627B681B681A687B6883
:102CAC001B6822F001021A607B68202283F83D2009
:102CBC007B689B6B5B6B7A68926B1046984741E024
:102CCC007B6893F83D30DBB2602B25D17B682022EA
:102CDC0083F83D207B6800221A647B681B685B6963
:102CEC0003F04003402B0BD17B681B681A697B688F
:102CFC005B6AD2B21A707B685B6A5A1C7B685A6238
:102D0C007B681B681A687B681B6822F001021A60DA
:102D1C007868FEF7F2FE15E07B681B685B6903F0D0
:102D2C004003402B0BD17B681B681A697B685B6A7C
:102D3C00D2B21A707B685B6A5A1C7B685A627868DC
:102D4C00FEF7D2FE7B681B6CBB60BB6803F0010313
:102D5C00002B0ED1BB6803F00203002B09D1BB681A
:102D6C0003F00403002B04D1BB6803F00803002B11
:102D7C0007D07B681B685A687B681B6822F4E0628A
:102D8C005A607B6893F83D30FB737B681B6C03F0D7
:102D9C000403042B13D1FB7B282B10D17B680B4A2B
:102DAC00DA627B6800221A637B68202283F83D205C
:102DBC007B68002283F83E207868FEF77AFE00BF1D
:102DCC001037BD4680BD00BFE12E00080000FFFF9C
:102DDC0080B588B002AFF8607A603B600B467B81AF
:102DEC00FB68DB6A7B617B69082B06D07B69012B56
:102DFC0003D07B6913F5803F08D1FB681B681A6808
:102E0C00FB681B6842F480721A600BE0FB681B6B5A
:102E1C00122B07D1FB681B681A68FB681B6842F40D
:102E2C0080721A603B6800937B6800224FF001119E
:102E3C00F86800F0F7F80346002B0DD0FB681B6810
:102E4C001B6803F48073B3F5807F03D1FB684FF4E8
:102E5C0000721A64032335E0FB681B69B3F5804FDD
:102E6C0008D17B89DBB21A46FB681B6802F0FE02B4
:102E7C001A611BE07B89DB11DBB203F00603DBB2CA
:102E8C0063F00F03DAB2FB681B681A613B687A685F
:102E9C000E49F86800F01DF90346002B01D0012300
:102EAC0010E07B89DAB2FB681B681A613B687A68B0
:102EBC000749F86800F00DF90346002B01D00123F7
:102ECC0000E0002318461837BD4680BD08000100FD
:102EDC000200010080B586B000AF78600023FB6073
:102EEC007B685B6A7B617B6993F83D30FB744B4B71
:102EFC001B68DB084A4AA2FB03231A0A13469B00F1
:102F0C001344DA00D31AFB60FB68002B06D17B69F3
:102F1C001B6C43F020027B691A640AE0FB68013BDE
:102F2C00FB607B691B681B6803F40073B3F5007FBF
:102F3C00EAD07B695B6B002B03D07B695B6B002257
:102F4C009A627B699B6B002B03D07B699B6B002285
:102F5C009A627B691B681A687B691B6822F4806221
:102F6C001A607B6900225A857B695B6B002B03D04E
:102F7C007B695B6B00225A637B699B6B002B03D0D4
:102F8C007B699B6B00225A637B691B681A687B699F
:102F9C001B6822F001021A607B6993F83D30DBB2AA
:102FAC00602B0ED17B69202283F83D207B690022A7
:102FBC0083F83E207B6900221A647869FEF79DFD38
:102FCC0027E0FB7C03F02803282B17D17B691B68B7
:102FDC001A687B691B6842F001021A607B691B68E6
:102FEC001A687B691B6842F480621A607B69002254
:102FFC001A637B69282283F83D2007E07B69202235
:10300C0083F83D207B69002283F83E207869FEF727
:10301C006BFD00BF1837BD4680BD00BF000000200F
:10302C0089B5F81480B584B000AFF860B9603B6026
:10303C001346FB7125E03B68B3F1FF3F21D0FDF750
:10304C0019FD0246BB69D31A3A689A4202D33B680F
:10305C00002B16D1FB6800221A63FB68202283F830
:10306C003D20FB68002283F83E20FB681B6C43F07C
:10307C002002FB681A64FB68002283F83C200123C1
:10308C0023E0BB681B0CDBB2012B0DD1FB681B686A
:10309C005B69DA43BB6813409BB2002B0CBF012366
:1030AC000023DBB21A460CE0FB681B689B69DA4311
:1030BC00BB6813409BB2002B0CBF01230023DBB277
:1030CC001A46FB799A42B6D0002318461037BD46F3
:1030DC0080BD80B584B000AFF860B9607A603B60A9
:1030EC0051E0FB681B685B6903F48063B3F5806F88
:1030FC0023D1FB681B681A68FB681B6842F40072DA
:10310C001A60FB681B686FF480625A61FB680022CE
:10311C001A63FB68202283F83D20FB68002283F8A9
:10312C003E20FB681B6C43F00402FB681A64FB68CE
:10313C00002283F83C20012346E07B68B3F1FF3F7B
:10314C0021D0FDF797FC02463B68D31A7A689A4265
:10315C0002D37B68002B16D1FB6800221A63FB6834
:10316C00202283F83D20FB68002283F83E20FB6878
:10317C001B6C43F02002FB681A64FB68002283F886
:10318C003C20012320E0BB681B0CDBB2012B0CD1D3
:10319C00FB681B685B69DA43BB6813409BB2002B6E
:1031AC0014BF01230023DBB20BE0FB681B689B6997
:1031BC00DA43BB6813409BB2002B14BF01230023DE
:1031CC00DBB2002B8DD1002318461037BD4680BDD5
:1031DC0080B584B000AFF860B9607A602DE0F86813
:1031EC0000F0AAF80346002B01D001232DE0BB68A8
:1031FC00B3F1FF3F21D0FDF73DFC02467B68D31AAB
:10320C00BA689A4202D3BB68002B16D1FB68002225
:10321C001A63FB68202283F83D20FB68002283F8A8
:10322C003E20FB681B6C43F02002FB681A64FB68B1
:10323C00002283F83C20012307E0FB681B685B69D4
:10324C0003F08003802BCAD1002318461037BD46EB
:10325C0080BD80B584B000AFF860B9607A602DE0B5
:10326C00F86800F069F80346002B01D001232DE02B
:10327C00BB68B3F1FF3F21D0FDF7FCFB02467B6836
:10328C00D31ABA689A4202D3BB68002B16D1FB68DA
:10329C0000221A63FB68202283F83D20FB68002281
:1032AC0083F83E20FB681B6C43F02002FB681A6419
:1032BC00FB68002283F83C20012307E0FB681B68B5
:1032CC005B6903F00403042BCAD1002318461037A2
:1032DC00BD4680BD80B485B000AF78600023FB6034
:1032EC00134B1B68DB08134AA2FB03231A0A134671
:1032FC009B001344FB60FB68013BFB60FB68002BED
:10330C0007D17B681B6C43F020027B681A64012395
:10331C0008E07B681B681B6803F40073B3F5007F3F
:10332C00E9D0002318461437BD4680BC704700BF57
:10333C000000002089B5F81480B483B000AF786029
:10334C007B681B685B6903F48063B3F5806F1BD1EA
:10335C007B681B686FF480625A617B6800221A6379
:10336C007B68202283F83D207B68002283F83E2076
:10337C007B681B6C43F004027B681A647B68002238
:10338C0083F83C20012300E0002318460C37BD468F
:10339C0080BC704780B483B000AF78607B68DB6A18
:1033AC00B3F52A0F03D17B680122DA6207E07B6850
:1033BC00DB6AB3F12A4F02D17B680822DA6200BFC4
:1033CC000C37BD4680BC704780B586B000AF7860C6
:1033DC007B68002B01D1012372E27B681B6803F030
:1033EC000103002B00F08780924B5B6803F00C0309
:1033FC00042B0CD08F4B5B6803F00C03082B12D101
:10340C008C4B5B6803F48033B3F5803F0BD1894B55
:10341C001B6803F40033002B6CD07B685B68002BBB
:10342C0068D101234CE27B685B68B3F5803F06D121
:10343C00804B1B687F4A43F4803313602EE07B681B
:10344C005B68002B0CD17B4B1B687A4A23F48033CE
:10345C001360784B1B68774A23F4802313601DE0BC
:10346C007B685B68B3F5A02F0CD1724B1B68714A5B
:10347C0043F4802313606F4B1B686E4A43F4803314
:10348C0013600BE06B4B1B686A4A23F480331360A8
:10349C00684B1B68674A23F4802313607B685B6866
:1034AC00002B13D0FDF7E6FA386108E0FDF7E2FADD
:1034BC0002463B69D31A642B01D9032300E25D4B0E
:1034CC001B6803F40033002BF0D014E0FDF7D2FAA4
:1034DC00386108E0FDF7CEFA02463B69D31A642B3B
:1034EC0001D90323ECE1534B1B6803F40033002B8D
:1034FC00F0D100E000BF7B681B6803F00203002BD7
:10350C0063D04C4B5B6803F00C03002B0BD0494B86
:10351C005B6803F00C03082B1CD1464B5B6803F46F
:10352C008033002B16D1434B1B6803F00203002B96
:10353C0005D07B681B69012B01D00123C0E13D4BF9
:10354C001B6823F0F8027B685B69DB003949134385
:10355C000B603AE07B681B69002B20D0364B0122B4
:10356C001A60FDF787FA386108E0FDF783FA024626
:10357C003B69D31A022B01D90323A1E12D4B1B6804
:10358C0003F00203002BF0D02A4B1B6823F0F80247
:10359C007B685B69DB00274913430B6015E0264B06
:1035AC0000221A60FDF766FA386108E0FDF762FA4E
:1035BC0002463B69D31A022B01D9032380E11D4B30
:1035CC001B6803F00203002BF0D17B681B6803F02F
:1035DC000803002B3AD07B689B69002B19D0174B42
:1035EC0001221A60FDF746FA386108E0FDF742FA4D
:1035FC0002463B69D31A022B01D9032360E10D4B20
:10360C005B6A03F00203002BF0D0012000F0D8FA23
:10361C001CE00A4B00221A60FDF72CFA38610FE00F
:10362C00FDF728FA02463B69D31A022B08D903236B
:10363C0046E100BF001002400000424280044242BA
:10364C00924B5B6A03F00203002BE9D17B681B6889
:10365C0003F00403002B00F0A6800023FB758B4BBA
:10366C00DB6903F08053002B0DD1884BDB69874A53
:10367C0043F08053D361854BDB6903F08053BB600F
:10368C00BB680123FB75824B1B6803F48073002B12
:10369C0018D17F4B1B687E4A43F480731360FDF78F
:1036AC00E9F9386108E0FDF7E5F902463B69D31A00
:1036BC00642B01D9032303E1754B1B6803F480735E
:1036CC00002BF0D07B68DB68012B06D16F4B1B6A9B
:1036DC006E4A43F0010313622DE07B68DB68002B1C
:1036EC000CD16A4B1B6A694A23F001031362674BC6
:1036FC001B6A664A23F0040313621CE07B68DB68D8
:10370C00052B0CD1614B1B6A604A43F00403136216
:10371C005E4B1B6A5D4A43F0010313620BE05B4B8B
:10372C001B6A5A4A23F001031362584B1B6A574A0F
:10373C0023F0040313627B68DB68002B15D0FDF7C4
:10374C0099F938610AE0FDF795F902463B69D31AFD
:10375C0041F28832934201D90323B1E04B4B1B6AEF
:10376C0003F00203002BEED014E0FDF783F938616F
:10377C000AE0FDF77FF902463B69D31A41F2883221
:10378C00934201D903239BE0404B1B6A03F00203D5
:10379C00002BEED1FB7D012B05D13C4BDB693B4A69
:1037AC0023F08053D3617B68DB69002B00F08780AA
:1037BC00364B5B6803F00C03082B61D07B68DB692C
:1037CC00022B46D1334B00221A60FDF753F93861B6
:1037DC0008E0FDF74FF902463B69D31A022B01D9D9
:1037EC0003236DE0294B1B6803F00073002BF0D111
:1037FC007B681B6AB3F5803F08D1244B5B6823F4CC
:10380C0000327B689B68214913434B601F4B5B68FC
:10381C0023F474127B68196A7B685B6A0B431B493F
:10382C0013434B601B4B01221A60FDF723F93861DF
:10383C0008E0FDF71FF902463B69D31A022B01D9A8
:10384C0003233DE0114B1B6803F00073002BF0D0F9
:10385C0035E0104B00221A60FDF70CF9386108E0D6
:10386C00FDF708F902463B69D31A022B01D9032351
:10387C0026E0064B1B6803F00073002BF0D11EE012
:10388C007B68DB69012B07D1012319E00010024092
:10389C0000700040600042420B4B5B68FB60FB68B1
:1038AC0003F480327B681B6A9A4206D1FB6803F4EE
:1038BC0070127B685B6A9A4201D0012300E00023FE
:1038CC0018461837BD4680BD0010024080B584B044
:1038DC0000AF786039607B68002B01D10123D0E008
:1038EC006A4B1B6803F007033A689A4210D9674B7E
:1038FC001B6823F0070265493B6813430B60634B5D
:10390C001B6803F007033A689A4201D00123B8E020
:10391C007B681B6803F00203002B20D07B681B68BC
:10392C0003F00403002B05D0594B5B68584A43F451
:10393C00E06353607B681B6803F00803002B05D021
:10394C00534B5B68524A43F460535360504B5B6873
:10395C0023F0F0027B689B684D4913434B607B68F6
:10396C001B6803F00103002B40D07B685B68012BC4
:10397C0007D1474B1B6803F40033002B15D10123EF
:10398C007FE07B685B68022B07D1414B1B6803F01F
:10399C000073002B09D1012373E03D4B1B6803F02E
:1039AC000203002B01D101236BE0394B5B6823F040
:1039BC0003027B685B68364913434B60FDF75AF88A
:1039CC00F8600AE0FDF756F80246FB68D31A41F29C
:1039DC008832934201D9032353E02D4B5B6803F0EB
:1039EC000C027B685B689B009A42EBD1274B1B68EF
:1039FC0003F007033A689A4210D2244B1B6823F059
:103A0C00070222493B6813430B60204B1B6803F0F1
:103A1C0007033A689A4201D0012332E07B681B68A5
:103A2C0003F00403002B08D0194B5B6823F4E0620D
:103A3C007B68DB68164913434B607B681B6803F09B
:103A4C000803002B09D0124B5B6823F460527B688F
:103A5C001B69DB000E4913434B6000F021F8024652
:103A6C000B4B5B681B0903F00F030A49CB5C22FA72
:103A7C0003F3094A1360094B1B681846FCF7B8FF9F
:103A8C00002318461037BD4680BD00BF0020024001
:103A9C0000100240305700080000002004000020F5
:103AAC0090B48AB000AF294B3C1D0FCB84E80F00BB
:103ABC0040F201233B800023FB610023BB61002308
:103ACC007B6200237B6100233B62214B5B68FB61C3
:103ADC00FB6903F00C03042B02D0082B03D02BE062
:103AEC001C4B3B622BE0FB699B0C03F00F03283350
:103AFC003B4413F8243C7B61FB6903F48033002BBB
:103B0C0012D0134B5B685B0C03F0010328333B446E
:103B1C0013F8283CBB617B690E4A03FB02F2BB69BC
:103B2C00B2FBF3F37B6204E07B690B4A02FB03F309
:103B3C007B627B6A3B6202E0064B3B6200BF3B6AE6
:103B4C0018462837BD4690BC704700BF2057000868
:103B5C000010024000127A0000093D0080B400AF52
:103B6C00024B1B681846BD4680BC70470000002005
:103B7C0080B500AFFFF7F2FF0246054B5B681B0AEE
:103B8C0003F007030349CB5C22FA03F3184680BD0C
:103B9C00001002404057000880B500AFFFF7DEFF71
:103BAC000246054B5B68DB0A03F007030349CB5C59
:103BBC0022FA03F3184680BD00100240405700085B
:103BCC0080B485B000AF78600A4B1B680A4AA2FB30
:103BDC0003235B0A7A6802FB03F3FB6000BFFB68FC
:103BEC005A1EFA60002BF9D100BF00BF1437BD4636
:103BFC0080BC704700000020D34D621080B582B0AD
:103C0C0000AF78607B68002B01D1012341E07B6819
:103C1C0093F83D30DBB2002B06D17B68002283F891
:103C2C003C207868FCF708FE7B68022283F83D2074
:103C3C007B681A687B6804331946104600F06AFAF0
:103C4C007B68012283F846207B68012283F83E20A2
:103C5C007B68012283F83F207B68012283F8402097
:103C6C007B68012283F841207B68012283F8422083
:103C7C007B68012283F843207B68012283F844206F
:103C8C007B68012283F845207B68012283F83D2064
:103C9C00002318460837BD4680BD000080B485B0AF
:103CAC0000AF78607B6893F83D30DBB2012B01D01C
:103CBC00012335E07B68022283F83D207B681B687A
:103CCC00DA687B681B6842F00102DA607B681B686B
:103CDC00164A934209D07B681B68B3F1804F04D01D
:103CEC007B681B68124A934211D17B681B689B68E6
:103CFC0003F00703FB60FB68062B10D07B681B6886
:103D0C001A687B681B6842F001021A6007E07B6846
:103D1C001B681A687B681B6842F001021A6000235A
:103D2C0018461437BD4680BC704700BF002C0140BC
:103D3C000004004080B582B000AF78607B681B68DF
:103D4C001B6903F00203022B22D17B681B68DB6822
:103D5C0003F00203022B1BD17B681B686FF002027D
:103D6C001A617B6801221A777B681B689B6903F0D8
:103D7C000303002B03D0786800F0B1F905E07868F4
:103D8C0000F0A4F9786800F0B3F97B6800221A7788
:103D9C007B681B681B6903F00403042B22D17B682E
:103DAC001B68DB6803F00403042B1BD17B681B68C6
:103DBC006FF004021A617B6802221A777B681B6819
:103DCC009B6903F44073002B03D0786800F087F9EB
:103DDC0005E0786800F07AF9786800F089F97B687A
:103DEC0000221A777B681B681B6903F00803082BF9
:103DFC0022D17B681B68DB6803F00803082B1BD1FE
:103E0C007B681B686FF008021A617B6804221A77C2
:103E1C007B681B68DB6903F00303002B03D0786815
:103E2C0000F05DF905E0786800F050F9786800F072
:103E3C005FF97B6800221A777B681B681B6903F0AB
:103E4C001003102B22D17B681B68DB6803F0100376
:103E5C00102B1BD17B681B686FF010021A617B68FA
:103E6C0008221A777B681B68DB6903F44073002B0C
:103E7C0003D0786800F033F905E0786800F026F993
:103E8C00786800F035F97B6800221A777B681B682C
:103E9C001B6903F00103012B0ED17B681B68DB68E7
:103EAC0003F00103012B07D17B681B686FF0010243
:103EBC001A617868FCF712FB7B681B681B6903F0BE
:103ECC008003802B0ED17B681B68DB6803F08003BA
:103EDC00802B07D17B681B686FF080021A617868B1
:103EEC0000F067FA7B681B681B6903F04003402BEA
:103EFC000ED17B681B68DB6803F04003402B07D1B5
:103F0C007B681B686FF040021A61786800F0F9F862
:103F1C007B681B681B6903F02003202B0ED17B6888
:103F2C001B68DB6803F02003202B07D17B681B6820
:103F3C006FF020021A61786800F032FA00BF08377F
:103F4C00BD4680BD80B584B000AF786039607B68B9
:103F5C0093F83C30012B01D10223B3E07B680122A2
:103F6C0083F83C207B68022283F83D207B681B6829
:103F7C009B68FB60FB6823F07703FB60FB6823F412
:103F8C007F43FB607B681B68FA689A603B681B6820
:103F9C00B3F5005F3ED0B3F5005F00F28780B3F558
:103FAC00805F00F08580B3F5805F7FD8702B1AD0CE
:103FBC00702B7BD8602B50D0602B77D8502B3CD0FB
:103FCC00502B73D8402B58D0402B6FD8302B64D04B
:103FDC00302B6BD8202B60D0202B67D8002B5CD0DB
:103FEC00102B5AD062E07B6818683B6899683B6874
:103FFC005A683B68DB6800F05CF97B681B689B685F
:10400C00FB60FB6843F07703FB607B681B68FA6816
:10401C009A604EE07B6818683B6899683B685A6800
:10402C003B68DB6800F045F97B681B689A687B6825
:10403C001B6842F480429A603BE07B6818683B68DE
:10404C0059683B68DB681A4600F0BCF87B681B6853
:10405C005021184600F013F92BE07B6818683B6878
:10406C0059683B68DB681A4600F0DAF87B681B6815
:10407C006021184600F003F91BE07B6818683B6868
:10408C0059683B68DB681A4600F09CF87B681B6833
:10409C004021184600F0F3F80BE07B681A683B6887
:1040AC001B681946104600F0EAF802E000BF00E079
:1040BC0000BF7B68012283F83D207B68002283F8D7
:1040CC003C20002318461037BD4680BD80B483B019
:1040DC0000AF786000BF0C37BD4680BC704780B421
:1040EC0083B000AF786000BF0C37BD4680BC704712
:1040FC0080B483B000AF786000BF0C37BD4680BC85
:10410C00704780B483B000AF786000BF0C37BD46F9
:10411C0080BC704780B485B000AF786039607B6834
:10412C001B68FB607B68254A934207D07B68B3F120
:10413C00804F03D07B68224A934208D1FB6823F05E
:10414C007003FB603B685B68FA681343FB607B6839
:10415C001A4A934207D07B68B3F1804F03D07B6837
:10416C00174A934208D1FB6823F44073FB603B6809
:10417C00DB68FA681343FB60FB6823F080023B6842
:10418C005B691343FB607B68FA681A603B689A684A
:10419C007B68DA623B681A687B689A627B68074ABC
:1041AC00934203D13B681A697B681A637B680122CE
:1041BC005A6100BF1437BD4680BC7047002C0140CB
:1041CC000004004080B487B000AFF860B9607A603A
:1041DC00FB681B6A7B61FB681B6A23F00102FB68AE
:1041EC001A62FB689B693B613B6923F0F0033B61FE
:1041FC007B681B013A6913433B617B6923F00A031B
:10420C007B617A69BB6813437B61FB683A699A618D
:10421C00FB687A691A6200BF1C37BD4680BC7047C8
:10422C0080B487B000AFF860B9607A60FB681B6A35
:10423C0023F01002FB681A62FB689B697B61FB68C8
:10424C001B6A3B617B6923F470437B617B681B03B6
:10425C007A6913437B613B6923F0A0033B61BB6824
:10426C001B013A6913433B61FB687A699A61FB68ED
:10427C003A691A6200BF1C37BD4680BC704780B4D7
:10428C0085B000AF786039607B689B68FB60FB6829
:10429C0023F07003FB603A68FB68134343F0070399
:1042AC00FB607B68FA689A6000BF1437BD4680BC1F
:1042BC00704780B487B000AFF860B9607A603B603B
:1042CC00FB689B687B617B6923F47F437B613B6864
:1042DC001A027B681A43BB6813437A6913437B61E8
:1042EC00FB687A699A6000BF1C37BD4680BC70477A
:1042FC0080B485B000AF786039607B6893F83C304F
:10430C00012B01D1022341E07B68012283F83C2080
:10431C007B68022283F83D207B681B685B68FB602E
:10432C007B681B689B68BB60FB6823F07003FB60B9
:10433C003B681B68FA681343FB607B681B68FA6870
:10434C005A607B681B68144A934209D07B681B68CF
:10435C00B3F1804F04D07B681B68104A93420CD198
:10436C00BB6823F08003BB603B685B68BA6813438F
:10437C00BB607B681B68BA689A607B68012283F813
:10438C003D207B68002283F83C200023184614371C
:10439C00BD4680BC704700BF002C014000040040AB
:1043AC0080B483B000AF786000BF0C37BD4680BCD2
:1043BC00704780B483B000AF786000BF0C37BD4647
:1043CC0080BC704780B582B000AF78607B68002BF2
:1043DC0001D101233FE07B6893F83D30DBB2002B29
:1043EC0006D17B68002283F83C207868FCF772FACF
:1043FC007B68242283F83D207B681B68DA687B6825
:10440C001B6822F40052DA60786800F025FC7B68A7
:10441C001B681A697B681B6822F490421A617B68DE
:10442C001B685A697B681B6822F02A025A617B68F8
:10443C001B68DA687B681B6842F40052DA607B68A0
:10444C0000221A647B68202283F83D207B6820229E
:10445C0083F83E20002318460837BD4680BD80B542
:10446C008AB002AFF860B9603B601346FB80002352
:10447C007B61FB6893F83D30DBB2202B7CD1BB68B1
:10448C00002B02D0FB88002B01D1012375E0FB68C7
:10449C0093F83C30012B01D102236EE0FB68012222
:1044AC0083F83C20FB6800221A64FB68212283F805
:1044BC003D20FCF7DFFA7861FB68FA889A84FB6888
:1044CC00FA88DA84FB689B68B3F5805F08D1FB68D7
:1044DC001B69002B04D10023FB61BB68BB6103E0AB
:1044EC00BB68FB610023BB61FB68002283F83C20A6
:1044FC002AE03B6800937B6900228021F86800F079
:10450C0011FA0346002B01D0032336E0FB69002B84
:10451C000BD1BB691B881A46FB681B68C2F30802E7
:10452C005A60BB690233BB6107E0FB691A78FB6810
:10453C001B685A60FB690133FB61FB68DB8C9BB227
:10454C00013B9AB2FB68DA84FB68DB8C9BB2002BD4
:10455C00CFD13B6800937B6900224021F86800F0C2
:10456C00E1F90346002B01D0032306E0FB6820226F
:10457C0083F83D20002300E0022318462037BD4677
:10458C0080BD000080B58AB000AF78607B681B6886
:10459C001B687B627B681B68DB683B627B681B6803
:1045AC005B69FB610023BB6100237B617B6A03F0C9
:1045BC000F03BB61BB69002B0DD17B6A03F0200399
:1045CC00002B08D03B6A03F02003002B03D0786843
:1045DC0000F099FA7BE1BB69002B00F0B180FB691C
:1045EC0003F00103002B05D13B6A03F49073002BFD
:1045FC0000F0A6807B6A03F00103002B0AD03B6A13
:10460C0003F48073002B05D07B681B6C43F0010214
:10461C007B681A647B6A03F00403002B0AD0FB69E5
:10462C0003F00103002B05D07B681B6C43F00202E6
:10463C007B681A647B6A03F00203002B0AD0FB69C7
:10464C0003F00103002B05D07B681B6C43F00402C4
:10465C007B681A647B6A03F00803002B0FD03B6A5B
:10466C0003F02003002B04D1FB6903F00103002BA2
:10467C0005D07B681B6C43F008027B681A647B686E
:10468C001B6C002B00F01E817B6A03F02003002BB7
:10469C0007D03B6A03F02003002B02D0786800F0AF
:1046AC0032FA7B681B685B6903F04003002B14BF74
:1046BC0001230023DBB27B617B681B6C03F00803D6
:1046CC00002B02D17B69002B31D0786800F074F993
:1046DC007B681B685B6903F04003002B23D07B686D
:1046EC001B685A697B681B6822F040025A617B6820
:1046FC009B6B002B13D07B689B6B764A5A637B6851
:10470C009B6B1846FCF72CFB0346002B16D07B68E2
:10471C009B6B5B6B7A68926B104698470EE07868DF
:10472C0000F0ECF80AE0786800F0E8F806E0786849
:10473C0000F0E4F87B6800221A64C3E000BFC1E01B
:10474C007B681B6B012B40F0A1807B6A03F010038C
:10475C00002B00F09B803B6A03F01003002B00F051
:10476C0095800023FB607B681B681B68FB607B6883
:10477C001B685B68FB60FB687B681B685B6903F00C
:10478C004003002B4ED07B689B6B1B685B683B82A5
:10479C003B8A002B00F098807B689B8D3A8A9A426A
:1047AC0080F092807B683A8ADA857B689B6B9B6988
:1047BC00202B2BD07B681B68DA687B681B6822F483
:1047CC008072DA607B681B685A697B681B6822F010
:1047DC0001025A617B681B685A697B681B6822F06E
:1047EC0040025A617B68202283F83E207B680022BD
:1047FC001A637B681B68DA687B681B6822F01002FE
:10480C00DA607B689B6B1846FCF76FFA7B689A8DB5
:10481C007B68DB8D9BB2D31A9BB21946786800F08B
:10482C0076F851E07B689A8D7B68DB8D9BB2D31A4E
:10483C007B827B68DB8D9BB2002B47D07B8A002B65
:10484C0044D07B681B68DA687B681B6822F4907222
:10485C00DA607B681B685A697B681B6822F001026E
:10486C005A617B68202283F83E207B6800221A6301
:10487C007B681B68DA687B681B6822F01002DA60C0
:10488C007B8A1946786800F042F81FE07B6A03F0D7
:10489C008003002B08D03B6A03F08003002B03D06D
:1048AC00786800F0C9F812E07B6A03F04003002B33
:1048BC000DD03B6A03F04003002B08D0786800F061
:1048CC000AF904E000BF02E000BF00E000BF283797
:1048DC00BD4680BD1D4A000880B483B000AF78602F
:1048EC0000BF0C37BD4680BC704780B483B000AFAE
:1048FC00786000BF0C37BD4680BC704780B483B075
:10490C0000AF786000BF0C37BD4680BC704780B4E8
:10491C0083B000AF78600B467B8000BF0C37BD4680
:10492C0080BC704780B584B000AFF860B9603B6064
:10493C001346FB712CE0BB69B3F1FF3F28D0BB6978
:10494C00002B07D0FCF796F802463B68D31ABA69DD
:10495C009A421DD2FB681B68DA68FB681B6822F45C
:10496C00D072DA60FB681B685A69FB681B6822F01E
:10497C0001025A61FB68202283F83D20FB6820224B
:10498C0083F83E20FB68002283F83C2003230FE0D1
:10499C00FB681B681A68BB681340BA689A420CBF64
:1049AC0001230023DBB21A46FB799A42C3D00023C1
:1049BC0018461037BD4680BD80B483B000AF786018
:1049CC007B681B68DA687B681B6822F49072DA607B
:1049DC007B681B685A697B681B6822F001025A616C
:1049EC007B681B6B012B07D17B681B68DA687B68C3
:1049FC001B6822F01002DA607B68202283F83E20CC
:104A0C007B6800221A6300BF0C37BD4680BC704720
:104A1C0080B584B000AF78607B685B6AFB60FB6834
:104A2C000022DA85FB680022DA84F868FFF766FF5B
:104A3C0000BF1037BD4680BD80B485B000AF786034
:104A4C007B6893F83D30DBB2212B3ED17B689B68B1
:104A5C00B3F5805F14D17B681B69002B10D17B6888
:104A6C001B6AFB60FB681B881A467B681B68C2F3D9
:104A7C0008025A607B681B6A9A1C7B681A6208E001
:104A8C007B681B6A591C7A6811621A787B681B68F0
:104A9C005A607B68DB8C9BB2013B9BB27A681946EF
:104AAC00D184002B0FD17B681B68DA687B681B688C
:104ABC0022F08002DA607B681B68DA687B681B680E
:104ACC0042F04002DA60002300E00223184614375B
:104ADC00BD4680BC704780B582B000AF78607B6803
:104AEC001B68DA687B681B6822F04002DA607B681E
:104AFC00202283F83D207868FFF7EEFE002318464D
:104B0C000837BD4680BD80B586B000AF78607B6845
:104B1C0093F83E30DBB2222B40F099807B689B6887
:104B2C00B3F5805F17D17B681B69002B13D1002371
:104B3C007B617B689B6A3B617B681B685B689BB293
:104B4C00C3F308039AB23B691A807B689B6A9A1C70
:104B5C007B689A6226E07B689B6A7B6100233B61E1
:104B6C007B689B68B3F5805F07D07B689B68002BE4
:104B7C000AD17B681B69002B06D17B681B685B68BC
:104B8C00DAB27B691A7008E07B681B685B68DBB281
:104B9C0003F07F03DAB27B691A707B689B6A5A1C3C
:104BAC007B689A627B68DB8D9BB2013B9BB27A6817
:104BBC001946D185002B48D17B681B68DA687B6865
:104BCC001B6822F02002DA607B681B68DA687B685D
:104BDC001B6822F48072DA607B681B685A697B68F8
:104BEC001B6822F001025A617B68202283F83E2068
:104BFC007B681B6B012B23D17B6800221A637B68BB
:104C0C001B68DA687B681B6822F01002DA607B682C
:104C1C001B681B6803F01003102B0AD10023FB60E8
:104C2C007B681B681B68FB607B681B685B68FB60B0
:104C3C00FB687B689B8D19467868FFF768FE02E07D
:104C4C007868FFF752FE002302E0002300E0022305
:104C5C0018461837BD4680BD80B584B000AF78606B
:104C6C007B681B681B6923F440517B68DA687B689E
:104C7C001B680A431A617B689A687B681B691A4334
:104C8C007B685B691343BB607B681B68DB6823F440
:104C9C00B05323F00C037A681268B9680B43D360E5
:104CAC007B681B685B6923F440717B689A697B683D
:104CBC001B680A435A617B681B682C4A934203D1D8
:104CCC00FEF76AFFF86002E0FEF752FFF860FA6840
:104CDC0013469B0013449A001A447B685B689B0044
:104CEC00B2FBF3F3224AA2FB03235B091901FA6816
:104CFC0013469B0013449A001A447B685B689B0024
:104D0C00B2FBF3F21A4BA3FB02035B09642000FB1A
:104D1C0003F3D31A1B013233154AA2FB03235B099D
:104D2C0003F0F0031944FA6813469B0013449A00ED
:104D3C001A447B685B689B00B2FBF3F20C4BA3FB41
:104D4C0002035B09642000FB03F3D31A1B0132330B
:104D5C00074AA2FB03235B0903F00F027B681B6865
:104D6C000A449A6000BF1037BD4680BD0038014030
:104D7C001F85EB51014B1868704700BF0C000020D9
:104D8C0070B500260C4D0D4C641BA410A64209D125
:104D9C0000F09CFC00260A4D0A4C641BA410A64291
:104DAC0005D170BD55F8043B98470136EEE755F830
:104DBC00043B98470136F2E77C5700087C57000803
:104DCC007C5700088057000803460244934200D1E8
:104DDC00704703F8011BF9E70EB46FF0004100B502
:104DEC009CB01DAB029006900791049108480949AC
:104DFC0053F8042B0591006802A9019300F068F8A0
:104E0C000022029B1A701CB05DF804EB03B07047D3
:104E1C000C0000200802FFFF2DE9F0478E68824647
:104E2C009E420C4690461F4638D88A8912F4906FE1
:104E3C0032D0256809690133A5EB010965694B443A
:104E4C0005EB450505EBD5756D109D4238BF1D462C
:104E5C00530531D5294600F06FFB064650B90C239B
:104E6C004FF0FF30CAF80030A38943F04003A38110
:104E7C00BDE8F0874A46216900F0CEFAA38923F4F5
:104E8C00906343F08003A38126614E4426603E4626
:104E9C006561A5EB0905A560BE4200D93E463246C8
:104EAC004146206800F0C6FAA36800209B1BA36053
:104EBC00236833442360DBE72A4600F0B1FB064647
:104ECC000028E1D15046216900F0CEFAC7E7000076
:104EDC002DE9F04F98468B8907461B060D46144664
:104EEC009DB00ED50B6963B9402100F025FB2860FD
:104EFC00286120B90C233B604FF0FF30D1E04023F8
:104F0C006B610023099320238DF8293030234FF057
:104F1C000109CDF80C80DFF8A4818DF82A302346E6
:104F2C009A4613F8012B0AB1252AF9D1BAEB040BD6
:104F3C000BD05B46224629463846FFF76DFF013001
:104F4C0000F0AA80099A5A4409929AF80030002B72
:104F5C0000F0A28000234FF0FF32CDE905230AF1C7
:104F6C00010A049307938DF853301A935446052283
:104F7C0014F8011B514800F041FA049AD8B9D00634
:104F8C0044BF20238DF85330110744BF2B238DF8D9
:104F9C0053309AF800302A2B15D0544600204FF08D
:104FAC000A0C079A214611F8013B303B092B4ED9CC
:104FBC00B0B1079214E0A0EB080309FA03F3134312
:104FCC00A2460493D2E7039B191D1B680391002B87
:104FDC00BBBF5B4242F0020207930793B8BF049237
:104FEC0023782E2B0CD163782A2B35D1039B0234DA
:104FFC001A1D1B680392002BB8BF4FF0FF330593AB
:10500C00DFF8BCA003225046217800F0F7F940B13C
:10501C004023A0EB0A0003FA00F0049B0134034385
:10502C00049314F8011B062226488DF8281000F072
:10503C00E5F9002838D0244B1BBB039B073323F026
:10504C00070308330393099B3344099367E70C4622
:10505C0001200CFB0232A5E700234FF00A0C194685
:10506C0001340593204610F8012B303A092A03D954
:10507C00002BC5D00591C3E7044601230CFB01218D
:10508C00F0E703AB00932A463846104B04A9AFF364
:10509C000080421C0646D6D1AB895B063FF52CAF8F
:1050AC0009981DB0BDE8F08F03AB00932A46384633
:1050BC00064B04A900F07CF8EBE700BF485700084A
:1050CC004E5700085257000800000000254E0008FB
:1050DC002DE9F047164699468A680B6907469342B4
:1050EC00B8BF1346336091F843200C46DDF820809E
:1050FC000AB1013333602368990642BF3368023327
:10510C003360256815F0060506D104F1190AE36829
:10511C0032689B1AAB4228DC94F84320131E226899
:10512C0018BF012392062DD44946384604F1430298
:10513C00C047013020D02368E56803F00603042B38
:10514C0018BF002532684FF00006A36808BFAD1ADF
:10515C00226908BF25EAE5759342C4BF9B1AED1876
:10516C001A34B5421AD1002008E0012352464946B0
:10517C003846C047013003D14FF0FF30BDE8F0870F
:10518C000135C4E73020E11881F843005A1C94F82B
:10519C0045102244023382F84310C5E7012322460E
:1051AC0049463846C0470130E6D00136D9E7000001
:1051BC002DE9FF470F7E9146782F80460C469A4684
:1051CC000C9D01F1430207D8622F0AD8002F00F082
:1051DC00D980582F00F0A48004F1420584F8427065
:1051EC003AE0A7F16303152BF6D801A151F823F08F
:1051FC005552000869520008E5510008E5510008B5
:10520C00E5510008E551000869520008E551000815
:10521C00E5510008E5510008E551000877530008F6
:10522C009952000859530008E5510008E55100084F
:10523C0099530008E551000899520008E5510008FF
:10524C00E5510008615300082B681A1D1B682A6081
:10525C0004F1420584F842300123A4E02068296857
:10526C00060601F104030AD50E682B60002E03DA42
:10527C002D23764284F843300A235E4819E00E68E9
:10528C0010F0400F2B6018BF36B2EFE72B68206888
:10529C00191D2960010601D51E6802E04606FBD5E2
:1052AC001E886F2F0CBF08230A235248002184F854
:1052BC0043106568002DA8BF2168A560A4BF21F02C
:1052CC00040121600EB9002D4DD01546B6FBF3F14B
:1052DC0003FB1167C75D05F8017D3746BB420E46DF
:1052EC00F4D9082B0BD12368DE0708D52369616834
:1052FC009942DEBF302305F8013C05F1FF35521B06
:10530C0022614B4621464046CDF800A003AAFFF788
:10531C00DFFE01304CD14FF0FF3004B0BDE8F08718
:10532C00344881F845702968236851F8046B29606A
:10533C001D0614D5DF0744BF43F0200323601EB9BC
:10534C00236823F0200323601023AFE7236843F086
:10535C00200323607823284884F84530E3E7590676
:10536C0048BFB6B2E6E71546BBE72B682668181DA2
:10537C006169286035061B6801D5196002E070066A
:10538C00FBD51980002315462361BAE72B68002151
:10539C001A1D2A601D686268284600F02FF808B1B3
:1053AC00401B606063682361002384F84330A8E7E6
:1053BC002A46494640462369D0470130ABD0236882
:1053CC009B0713D4E068039B9842B8BF1846A4E728
:1053DC000123324649464046D04701309BD0013527
:1053EC00E36803995B1AAB42F2DCEBE7002504F1AE
:1053FC001906F5E7595700086A570008034610B517
:10540C00C9B202449342184601D1002003E004784B
:10541C0001338C42F6D110BD0A44914200F1FF33A6
:10542C0000D1704710B511F8014B914203F8014FB0
:10543C00F9D110BD884210B501EB020402D98442A7
:10544C00234607D8431EA14208D011F8012B03F8BC
:10545C00012FF8E7014602448A4200D110BD13F82F
:10546C00014D02F8014DF7E738B50546002940D04B
:10547C0051F8043C0C1F002BB8BFE41800F010F9D5
:10548C001C4A136833B9636014602846BDE8384081
:10549C0000F00CB9A34208D9206821188B4201BF37
:1054AC0019685B6809182160EDE71A465B680BB157
:1054BC00A342FAD911685018A0420BD120680144BC
:1054CC00501883421160E0D118685B680144116088
:1054DC005360DAE702D90C232B60D6E72068211839
:1054EC008B4201BF19685B680918216063605460C6
:1054FC00CBE738BDB004002070B50E4E0C463168B9
:10550C00054611B900F0BCF830602146284600F081
:10551C00B7F8431C0AD0C41C24F00304A04207D0E3
:10552C00211A284600F0ACF8013001D14FF0FF34BD
:10553C00204670BDB40400202DE9F041CD1C25F0AF
:10554C00030508350C2D38BF0C25002D074601DB53
:10555C00A94205D90C2300263B603046BDE8F081FA
:10556C002E4E00F09DF833681C4634BB2946384655
:10557C00FFF7C2FF431C04464DD134682646002E6B
:10558C0040D123683146384604EB030800F078F824
:10559C0080453AD1216803356D1A25F0030508358D
:1055AC000C2D38BF0C2538462946FFF7A5FF0130D6
:1055BC002BD023682B4423600EE02268521B1ED490
:1055CC000B2A16D96119A342256018BF596063686C
:1055DC0008BF316062514B60384604F10B0600F095
:1055EC0065F826F00706231DF21AB6D09B1BA350B4
:1055FC00B3E76268A3420CBF32605A60ECE7234603
:10560C006468B2E734467668B9E70C2338463B60E9
:10561C0000F04CF8A1E72560DEE700BFB0040020E5
:10562C002DE9F041804614460E4621B91146BDE8DD
:10563C00F041FFF781BF2AB9FFF716FF2546284630
:10564C00BDE8F08100F038F88442074602D8B4EB8C
:10565C00500F12D821464046FFF76EFF0546002832
:10566C00EDD0BC422246314628BF3A46FFF7D4FE65
:10567C0031464046FFF7F8FEE1E73546DFE700002C
:10568C0038B50023054D044608462B60FBF74CF853
:10569C00431C02D12B6803B1236038BDB804002031
:1056AC00014800F011B800BFBC040020014800F014
:1056BC000CB800BFBC04002051F8043C181F002B90
:1056CC00BCBF0B58C018704770477047F8B500BF87
:1056DC00F8BC08BC9E467047F8B500BFF8BC08BCC7
:0456EC009E4670471F
:1056F00030782558000000005374617274696E6739
:1057000020493243205363616E6E696E673A200D03
:105710000A000000446F6E6521200D0A0D0A00008A
:1057200002030405060708090A0B0C0D0E0F1010E2
:105730000000000000000000010203040607080941
:105740000000000001020304232D302B2000686CB0
:105750004C00656667454647003031323334353694
:1057600037383941424344454600303132333435CD
:0C577000363738396162636465660000FA
:04577C0031010008EF
:045780000D0100080F
:105784000024F400100000000100000010000020BC
:105794000000000000000000000000000000000005
:1057A40000000000000000000000000000000000F5
:1057B40000000000000000000000000000000000E5
:1057C40000000000000000000000000000000000D5
:1057D40000000000000000000000000000000000C5
:1057E40000000000000000000000000000000000B5
:040000050800098561
:00000001FF
