:020000040800F2
:1000000000280020F9080008550600085B060008D3
:1000100061060008670600086D0600080000000081
:10002000000000000000000000000000730600084F
:100030007F060008000000008B06000897060008F5
:100040004109000841090008410900084109000868
:100050004109000841090008410900084109000858
:100060004109000841090008410900084109000848
:100070004109000841090008410900084109000838
:100080004109000841090008410900084109000828
:100090004109000841090008410900084109000818
:1000A0004109000841090008410900084109000808
:1000B000A5060008410900080000000041090008E9
:1000C000410900080000000000000000410900088C
:1000D000000000004109000841090008000000007C
:1000E000410900084109000841090008000000001A
:1000F0000000000000000000000000000000000000
:0C01000000000000000000005FF808F1A3
:10010C0010B5054C237833B9044B13B10448AFF345
:10011C0000800123237010BD9C0000200000000013
:10012C00EC31000808B5034B1BB103490348AFF38E
:10013C00008008BD00000000A0000020EC31000889
:10014C0080B588B000AF07F1100300221A605A6026
:10015C009A60DA601D4B9B691C4A43F02003936143
:10016C001A4B9B6903F02003FB60FB68174B9B69E0
:10017C00164A43F004039361144B9B6903F0040388
:10018C00BB60BB68114B9B69104A43F00803936139
:10019C000E4B9B6903F008037B607B6800220221F5
:1001AC000B4800F0D9FE02233B6101237B61002345
:1001BC00BB610223FB6107F110031946044800F0F0
:1001CC004FFD00BF2037BD4680BD00BF0010024070
:1001DC000008014080B500AF124B134A1A60114B56
:1001EC00124A5A600F4B00229A600E4B0022DA60C2
:1001FC000C4B4FF480421A610A4B00225A61094B96
:10020C0000229A61074B0022DA61064B00221A6227
:10021C00044800F0B9FE0346002B01D000F00FF9A2
:10022C0000BF80BDB800002000540040A086010033
:10023C0080B58AB000AF786007F1140300221A6011
:10024C005A609A60DA607B681B681D4A934232D10F
:10025C001C4B9B691B4A43F008039361194B9B6928
:10026C0003F008033B613B694FF440737B6112233D
:10027C00BB610123FB6107F114031946124800F01E
:10028C00EFFC124B5B687B627B6A43F0E0637B6242
:10029C007B6A43F002037B620C4A7B6A5360094B16
:1002AC00DB69084A43F40013D361064BDB6903F4A2
:1002BC000013FB60FB6800BF2837BD4680BD00BF44
:1002CC000054004000100240000C014000000140AE
:1002DC0080B582B000AF0023FB7100F02DFB00F065
:1002EC005FF8FFF72DFFFFF775FF00F01BFA00F02A
:1002FC0089FA234801F07CFD4FF47A7000F07EFB04
:10030C0042F210731A221F491F4802F052F90123BE
:10031C00FB7128E0FB799BB25B0099B205230322A9
:10032C001A4800F075FF0346BB71BB79002B07D050
:10033C0042F2107304221649134802F03AF90FE006
:10034C00BB79002B0CD1FB791A461249124802F0EA
:10035C00CDFA42F2107319220F490B4802F029F919
:10036C00FB790133FB7197F90730002BD2DA42F29B
:10037C0010730B220949044802F01BF9FEE700BF79
:10038C007C01002004000020C4010020B8000020E3
:10039C0000000020043200080C0100202000002086
:1003AC0080B590B000AF07F1180328220021184641
:1003BC0002F094FA3B1D00221A605A609A60DA60CF
:1003CC001A610123BB614FF48033FB6100233B6254
:1003DC000123BB6202237B634FF48033BB634FF476
:1003EC00E013FB6307F11803184601F097F8034676
:1003FC00002B01D000F023F80F237B600223BB609D
:10040C000023FB604FF480633B6100237B613B1D49
:10041C000221184601F004FB0346002B01D000F02A
:10042C000EF800BF4037BD4680BD80B582B000AF2E
:10043C00786000F009F800BF0837BD4680BD80B475
:10044C0000AF72B600BFFEE780B400AF514B1B6823
:10045C00002B0BDD4F4B1B68013B4E4A13604D4B81
:10046C001B68002B02D14C4B01221A604B4B1B68B2
:10047C00002B0BDD494B1B68013B484A1360474B73
:10048C001B68002B02D1464B01221A60454B1B689E
:10049C00002B0BDD434B1B68013B424A1360414B65
:1004AC001B68002B02D1404B01221A603F4B1B688A
:1004BC00002B0BDD3D4B1B68013B3C4A13603B4B57
:1004CC001B68002B02D13A4B01221A60394B1B6876
:1004DC00002B0BDD374B1B68013B364A1360354B49
:1004EC001B68002B02D1344B01221A60334B1B6862
:1004FC00002B0BDD314B1B68013B304A13602F4B3B
:10050C001B68002B02D12E4B01221A602D4B1B684D
:10051C00002B0BDD2B4B1B68013B2A4A1360294B2C
:10052C001B68002B02D1284B01221A60274B1B6839
:10053C00002B0BDD254B1B68013B244A1360234B1E
:10054C001B68002B02D1224B01221A60214B1B6825
:10055C00002B0BDD1F4B1B68013B1E4A13601D4B10
:10056C001B68002B02D11C4B01221A601B4B1B6811
:10057C00002B0BDD194B1B68013B184A1360174B02
:10058C001B68002B02D1164B01221A6000BFBD461E
:10059C0080BC7047280100202C0100203001002075
:1005AC0034010020380100203C01002040010020D3
:1005BC0044010020480100204C0100205001002083
:1005CC0054010020580100205C0100206001002033
:1005DC0064010020680100206C01002070010020E3
:1005EC007401002080B485B000AF154B9B69144A90
:1005FC0043F001039361124B9B6903F00103BB6051
:10060C00BB680F4BDB690E4A43F08053D3610C4B34
:10061C00DB6903F080537B607B680A4B5B68FB6093
:10062C00FB6823F0E063FB60FB6843F00073FB6046
:10063C00044AFB68536000BF1437BD4680BC70474A
:10064C00001002400000014080B400AFFEE780B40F
:10065C0000AFFEE780B400AFFEE780B400AFFEE76A
:10066C0080B400AFFEE780B400AF00BFBD4680BCD5
:10067C00704780B400AF00BFBD4680BC704780B4EB
:10068C0000AF00BFBD4680BC704780B500AF00F026
:10069C0099F900BF80BD000080B500AF024801F0A1
:1006AC00F3FB00BF80BD00BF7C01002080B586B08D
:1006BC0000AF7860144A154BD31A7B617B693B61A0
:1006CC00134B1B68002B02D1114B124A1A60104BB2
:1006DC001A687B6813443A699A4207D202F0D4F83C
:1006EC0003460C221A604FF0FF3309E0084B1B68DD
:1006FC00FB60074B1A687B681344054A1360FB6860
:10070C0018461837BD4680BD0028002000040000A4
:10071C00780100202002002080B400AF00BFBD464D
:10072C0080BC704780B586B000AF07F1080300228B
:10073C001A605A609A60DA603B4600221A605A606E
:10074C001D4B4FF080421A601B4B41F61F425A6002
:10075C00194B00229A60184B6322DA60164B002268
:10076C001A61154B80229A61134801F0F1FA034685
:10077C00002B01D0FFF763FE4FF48053BB6007F1F1
:10078C00080319460C4801F087FC0346002B01D0E6
:10079C00FFF755FE00233B6000237B603B46194668
:1007AC00054801F04FFE0346002B01D0FFF747FE32
:1007BC0000BF1837BD4680BD7C01002080B584B0D9
:1007CC0000AF78607B681B68B3F1804F13D10C4B82
:1007DC00DB690B4A43F00103D361094BDB6903F07E
:1007EC000103FB60FB68002200211C2000F001FAD1
:1007FC001C2000F01AFA00BF1037BD4680BD00BFA8
:10080C000010024080B500AF114B124A1A60104B19
:10081C004FF416525A600E4B00229A600C4B002279
:10082C00DA600B4B00221A61094B0C225A61084BFF
:10083C0000229A61064B0022DA61054801F06CFE39
:10084C000346002B01D0FFF7FAFD00BF80BD00BFAF
:10085C00C40100200044004080B588B000AF78602F
:10086C0007F1100300221A605A609A60DA607B6804
:10087C001B681B4A93422FD11A4BDB69194A43F46C
:10088C000033D361174BDB6903F40033FB60FB6867
:10089C00144B9B69134A43F004039361114B9B69FE
:1008AC0003F00403BB60BB6804233B6102237B6140
:1008BC000323FB6107F1100319460B4800F0D0F934
:1008CC0008233B6100237B610023BB6107F110030C
:1008DC001946054800F0C4F900BF2037BD4680BD5D
:1008EC000044004000100240000801400C480D4933
:1008FC000D4A002302E0D458C4500433C4188C426F
:10090C00F9D30A4A0A4C002301E013600432A242D4
:10091C00FBD3FFF701FF01F0BDFFFFF7D9FC7047D8
:10092C00000000209C000020703200089C00002079
:10093C001C020020FEE7000080B500AF084B1B68CE
:10094C00074A43F010031360032000F047F90F200F
:10095C0000F008F8FFF746FE0023184680BD00BFE4
:10096C000020024080B582B000AF7860124B1A684C
:10097C00124B1B7819464FF47A73B3FBF1F3B2FBAD
:10098C00F3F3184600F05FF90346002B01D0012366
:10099C000EE07B680F2B0AD8002279684FF0FF30ED
:1009AC0000F027F9064A7B681360002300E001235E
:1009BC0018460837BD4680BD2C00002034000020AE
:1009CC003000002080B400AF054B1B781A46054B55
:1009DC001B681344034A136000BFBD4680BC7047BC
:1009EC00340000200802002080B400AF024B1B68CA
:1009FC001846BD4680BC70470802002080B584B004
:100A0C0000AF7860FFF7F0FFB8607B68FB60FB68B5
:100A1C00B3F1FF3F05D00A4B1B781A46FB68134411
:100A2C00FB6000BFFFF7E0FF0246BB68D31AFA6811
:100A3C009A42F7D800BF00BF1037BD4680BD00BF3B
:100A4C003400002080B485B000AF78607B6803F080
:100A5C000703FB600C4BDB68BB60BA684FF6FF0307
:100A6C001340BB60FB681A02BB68134343F0BF63BF
:100A7C0043F40033BB60044ABB68D36000BF143737
:100A8C00BD4680BC704700BF00ED00E080B400AFF5
:100A9C00044BDB681B0A03F007031846BD4680BCF9
:100AAC00704700BF00ED00E080B483B000AF034698
:100ABC00FB7197F90730002B0BDBFB7903F01F025E
:100ACC00064997F907305B09012000FA02F241F858
:100ADC00232000BF0C37BD4680BC704700E100E00E
:100AEC0080B483B000AF03463960FB7197F90730CF
:100AFC00002B0ADB3B68DAB20C4997F9073012017C
:100B0C00D2B20B4483F800230AE03B68DAB20849FE
:100B1C00FB7903F00F03043B1201D2B20B441A769B
:100B2C0000BF0C37BD4680BC704700BF00E100E041
:100B3C0000ED00E080B489B000AFF860B9607A6075
:100B4C00FB6803F00703FB61FB69C3F10703042B8C
:100B5C0028BF0423BB61FB690433062B02D9FB6954
:100B6C00033B00E000237B614FF0FF32BB6902FACC
:100B7C0003F3DA43BB681A407B699A404FF0FF31AC
:100B8C007B6901FA03F3D9437B680B401343184686
:100B9C002437BD4680BC704780B582B000AF78600A
:100BAC007B68013BB3F1807F01D301230FE00A4A3C
:100BBC007B68013B53600F214FF0FF30FFF790FF34
:100BCC00054B00229A60044B07221A60002318463A
:100BDC000837BD4680BD00BF10E000E080B582B094
:100BEC0000AF78607868FFF72DFF00BF0837BD466F
:100BFC0080BD80B586B000AF0346B9607A60FB73E8
:100C0C0000237B61FFF742FF78617A68B9687869E5
:100C1C00FFF790FF024697F90F3011461846FFF781
:100C2C005FFF00BF1837BD4680BD80B582B000AFF6
:100C3C000346FB7197F907301846FFF735FF00BFE5
:100C4C000837BD4680BD80B582B000AF786078684B
:100C5C00FFF7A2FF034618460837BD4680BD0000CB
:100C6C0080B48BB000AF7860396000237B620023C6
:100C7C003B6261E101227B6A02FA03F3FB613B6890
:100C8C001B68FA691340BB61BA69FB699A4240F070
:100C9C0050813B685B68974A93425ED0954A934279
:100CAC0075D8954A934258D0934A93426FD8934A39
:100CBC00934252D0914A934269D8914A93424CD074
:100CCC008F4A934263D88F4A934246D08D4A9342BF
:100CDC005DD8122B2AD8122B59D801A252F823F026
:100CEC00670D0008410D0008530D0008950D000814
:100CFC009B0D00089B0D00089B0D00089B0D000828
:100D0C009B0D00089B0D00089B0D00089B0D000817
:100D1C009B0D00089B0D00089B0D00089B0D000807
:100D2C009B0D0008490D00085D0D0008764A9342A2
:100D3C0013D02CE03B68DB683B6229E03B68DB6846
:100D4C0004333B6224E03B68DB6808333B621FE002
:100D5C003B68DB680C333B621AE03B689B68002BFA
:100D6C0002D104233B6213E03B689B68012B05D145
:100D7C0008233B627B68FA691A6109E008233B622D
:100D8C007B68FA695A6103E000233B6200E000BF14
:100D9C00BB69FF2B01D87B6801E07B6804337B6166
:100DAC00BB69FF2B02D87B6A9B0002E07B6A083B85
:100DBC009B003B617B691A680F213B6901FA03F3C5
:100DCC00DB431A40396A3B6901FA03F31A437B6926
:100DDC001A603B685B6803F08053002B00F0A9801D
:100DEC004A4B9B69494A43F001039361474B9B690A
:100DFC0003F00103BB60BB68454A7B6A9B08023366
:100E0C0052F82330FB607B6A03F003039B000F2234
:100E1C0002FA03F3DB43FA681340FB607B683D4A3C
:100E2C0093420DD07B683C4A934207D07B683B4A87
:100E3C00934201D1022304E0032302E0012300E0EA
:100E4C0000237A6A02F0030292009340FA6813437B
:100E5C00FB602F497B6A9B080233FA6841F8232018
:100E6C003B685B6803F48033002B06D02C4B1A686C
:100E7C002B49BB6913430B6006E0294B1A68BB690D
:100E8C00DB43274913400B603B685B6803F400337A
:100E9C00002B06D0224B5A682149BB6913434B6087
:100EAC0006E01F4B5A68BB69DB431D4913404B607E
:100EBC003B685B6803F48013002B06D0184B9A68D0
:100ECC001749BB6913438B6006E0154B9A68BB69E5
:100EDC00DB43134913408B603B685B6803F40013DE
:100EEC00002B1FD00E4BDA680D49BB691343CB6046
:100EFC001FE000BF00003210000031100000221073
:100F0C00000021100000121000001110001002400F
:100F1C000000014000080140000C0140001001409D
:100F2C00000401400B4BDA68BB69DB4309491340F1
:100F3C00CB607B6A01337B623B681A687B6A22FA5E
:100F4C0003F3002B7FF496AE00BF00BF2C37BD46D9
:100F5C0080BC70470004014080B483B000AF78605F
:100F6C000B467B8013467B707B78002B03D07A88F2
:100F7C007B681A6103E07B881A047B681A6100BFE6
:100F8C000C37BD4680BC704780B584B000AF78602C
:100F9C007B68002B01D101232BE17B6893F83D305A
:100FAC00DBB2002B06D17B68002283F83C207868EA
:100FBC00FFF73EF97B68242283F83D207B681B6891
:100FCC001A687B681B6822F001021A607B681B6838
:100FDC001A687B681B6842F400421A607B681B68C5
:100FEC001A687B681B6822F400421A6000F06AFEE3
:100FFC00F8607B685B68814A934207D8FB68804A3B
:10100C00934294BF01230023DBB206E0FB687D4AC8
:10101C00934294BF01230023DBB2002B01D00123A8
:10102C00E7E0FB68784AA2FB03239B0CBB607B6860
:10103C001B685B6823F03F017B681B68BA680A4336
:10104C005A607B681B681B6A23F03F017B685B68F6
:10105C006A4A934202D8BB68013309E0BB684FF47B
:10106C00967202FB03F3694AA2FB03239B0901332B
:10107C007A6812680B4313627B681B68DB6923F484
:10108C004F4222F0FF027B685B685C498B4219D8A7
:10109C00FB68591E7B685B685B00B1FBF3F3591C62
:1010AC0040F6FC730B40002B0AD0FB68591E7B6882
:1010BC005B685B00B1FBF3F30133C3F30B0351E04B
:1010CC0004234FE07B689B68002B11D1FB68581EF2
:1010DC007B6859680B465B000B44B0FBF3F30133A0
:1010EC00C3F30B03002B0CBF01230023DBB212E074
:1010FC00FB68581E7B6859680B469B000B44990093
:10110C000B44B0FBF3F30133C3F30B03002B0CBF05
:10111C0001230023DBB2002B01D0012322E07B68EA
:10112C009B68002B0ED1FB68581E7B6859680B46D8
:10113C005B000B44B0FBF3F30133C3F30B0343F439
:10114C0000430FE0FB68581E7B6859680B469B00F8
:10115C000B4499000B44B0FBF3F30133C3F30B03C3
:10116C0043F44043796809681343CB617B681B687F
:10117C001B6823F0C0017B68DA697B681B6A1A4321
:10118C007B681B680A431A607B681B689B6823F4A6
:10119C00034323F0FF037A6811697A68D26811431C
:1011AC007A6812680B4393607B681B68DB6823F0DA
:1011BC00FF017B685A697B689B691A437B681B68D3
:1011CC000A43DA607B681B681A687B681B6842F00C
:1011DC0001021A607B6800221A647B68202283F863
:1011EC003D207B6800221A637B68002283F83E2036
:1011FC00002318461037BD4680BD00BFA0860100F5
:10120C007F841E00FF083D0083DE1B43D34D62101C
:10121C0080B58AB002AFF8607A603B600B467B8188
:10122C00FFF7E2FBF8610123BB61FB6893F83D30EB
:10123C00DBB2202B40F01181FB69009319230122B2
:10124C008849F86800F012F90346002B01D00223FC
:10125C0004E1FB6893F83C30012B01D10223FDE043
:10126C00FB68012283F83C20FB681B681B6803F0B9
:10127C000103012B07D0FB681B681A68FB681B680D
:10128C0042F001021A60FB681B681A68FB681B6855
:10129C0022F400621A60FB68242283F83D20FB686C
:1012AC0000221A64FB68704ADA62FB681B681A68D1
:1012BC00FB681B6842F480721A60FB6900933B6800
:1012CC0000224FF00111F86800F0D0F80346002B13
:1012DC000DD0FB681B681B6803F48073B3F5807F2B
:1012EC0003D1FB684FF400721A640323B6E07B89C8
:1012FC00DBB21A46FB681B6802F0FE021A61FFF7AC
:10130C0073FBF861FB681B685B6903F00203022B3B
:10131C000CBF01230023DBB2FB75FB681B685B6908
:10132C0003F48063B3F5806F0CBF01230023DBB2A1
:10133C00BB7525E0FFF758FB0246FB69D31A3A68E8
:10134C009A4202D33B68002B03D1FB68A02283F89E
:10135C003D20FB681B685B6903F00203022B0CBF8A
:10136C0001230023DBB2FB75FB681B685B6903F48C
:10137C008063B3F5806F0CBF01230023DBB2BB7518
:10138C00FB6893F83D30DBB2A02B05D0FB7D002B26
:10139C0002D1BB7D002BCDD0FB68202283F83D20F1
:1013AC00FB681B685B6903F00203022B29D1FB6805
:1013BC001B681A68FB681B6842F400721A600023F1
:1013CC003B61FB681B685B693B61FB681B689B6945
:1013DC003B613B69FB690093192301222149F868A1
:1013EC0000F044F80346002B01D0012336E0FB68E3
:1013FC00202283F83D20FB68002283F83C20002348
:10140C002CE0FB681B681A68FB681B6842F40072CE
:10141C001A60FB681B686FF480625A61FB69009369
:10142C00192301220F49F86800F020F80346002B1D
:10143C0001D0012312E0BB690133BB61BA697B683F
:10144C009A42FFF432AFFB68202283F83D20FB6800
:10145C00002283F83C20012300E0022318462037A9
:10146C00BD4680BD020010000000FFFF80B584B0B7
:10147C0000AFF860B9603B601346FB7125E03B6838
:10148C00B3F1FF3F21D0FFF7AFFA0246BB69D31A85
:10149C003A689A4202D33B68002B16D1FB680022B3
:1014AC001A63FB68202283F83D20FB68002283F836
:1014BC003E20FB681B6C43F02002FB681A64FB683F
:1014CC00002283F83C20012323E0BB681B0CDBB219
:1014DC00012B0DD1FB681B685B69DA43BB681340B9
:1014EC009BB2002B0CBF01230023DBB21A460CE08D
:1014FC00FB681B689B69DA43BB6813409BB2002BEB
:10150C000CBF01230023DBB21A46FB799A42B6D0FA
:10151C00002318461037BD4680BD000080B586B04C
:10152C0000AF78607B68002B01D1012372E27B68ED
:10153C001B6803F00103002B00F08780924B5B6863
:10154C0003F00C03042B0CD08F4B5B6803F00C03E3
:10155C00082B12D18C4B5B6803F48033B3F5803FBE
:10156C000BD1894B1B6803F40033002B6CD07B68C8
:10157C005B68002B68D101234CE27B685B68B3F598
:10158C00803F06D1804B1B687F4A43F48033136045
:10159C002EE07B685B68002B0CD17B4B1B687A4A76
:1015AC0023F480331360784B1B68774A23F4802331
:1015BC0013601DE07B685B68B3F5A02F0CD1724BF8
:1015CC001B68714A43F4802313606F4B1B686E4A8F
:1015DC0043F4803313600BE06B4B1B686A4A23F4B3
:1015EC0080331360684B1B68674A23F480231360B5
:1015FC007B685B68002B13D0FFF7F6F9386108E0C5
:10160C00FFF7F2F902463B69D31A642B01D9032385
:10161C0000E25D4B1B6803F40033002BF0D014E0A8
:10162C00FFF7E2F9386108E0FFF7DEF902463B69A3
:10163C00D31A642B01D90323ECE1534B1B6803F43D
:10164C000033002BF0D100E000BF7B681B6803F077
:10165C000203002B63D04C4B5B6803F00C03002B94
:10166C000BD0494B5B6803F00C03082B1CD1464B89
:10167C005B6803F48033002B16D1434B1B6803F0DB
:10168C000203002B05D07B681B69012B01D00123C1
:10169C00C0E13D4B1B6823F0F8027B685B69DB0003
:1016AC00394913430B603AE07B681B69002B20D04F
:1016BC00364B01221A60FFF797F9386108E0FFF703
:1016CC0093F902463B69D31A022B01D90323A1E1FA
:1016DC002D4B1B6803F00203002BF0D02A4B1B6828
:1016EC0023F0F8027B685B69DB00274913430B602E
:1016FC0015E0264B00221A60FFF776F9386108E0F6
:10170C00FFF772F902463B69D31A022B01D9032366
:10171C0080E11D4B1B6803F00203002BF0D17B68AA
:10172C001B6803F00803002B3AD07B689B69002BE5
:10173C0019D0174B01221A60FFF756F9386108E0EF
:10174C00FFF752F902463B69D31A022B01D9032346
:10175C0060E10D4B5B6A03F00203002BF0D001201B
:10176C0000F0D8FA1CE00A4B00221A60FFF73CF993
:10177C0038610FE0FFF738F902463B69D31A022BA8
:10178C0008D9032346E100BF00100240000042428A
:10179C0080044242924B5B6A03F00203002BE9D1B6
:1017AC007B681B6803F00403002B00F0A680002369
:1017BC00FB758B4BDB6903F08053002B0DD1884BF1
:1017CC00DB69874A43F08053D361854BDB6903F0B7
:1017DC008053BB60BB680123FB75824B1B6803F411
:1017EC008073002B18D17F4B1B687E4A43F48073A7
:1017FC001360FFF7F9F8386108E0FFF7F5F80246D7
:10180C003B69D31A642B01D9032303E1754B1B6885
:10181C0003F48073002BF0D07B68DB68012B06D1BE
:10182C006F4B1B6A6E4A43F0010313622DE07B6819
:10183C00DB68002B0CD16A4B1B6A694A23F001034D
:10184C001362674B1B6A664A23F0040313621CE0A5
:10185C007B68DB68052B0CD1614B1B6A604A43F03B
:10186C00040313625E4B1B6A5D4A43F0010313626F
:10187C000BE05B4B1B6A5A4A23F001031362584B73
:10188C001B6A574A23F0040313627B68DB68002B46
:10189C0015D0FFF7A9F838610AE0FFF7A5F8024662
:1018AC003B69D31A41F28832934201D90323B1E048
:1018BC004B4B1B6A03F00203002BEED014E0FFF736
:1018CC0093F838610AE0FFF78FF802463B69D31AA8
:1018DC0041F28832934201D903239BE0404B1B6AAF
:1018EC0003F00203002BEED1FB7D012B05D13C4B09
:1018FC00DB693B4A23F08053D3617B68DB69002BA7
:10190C0000F08780364B5B6803F00C03082B61D02A
:10191C007B68DB69022B46D1334B00221A60FFF740
:10192C0063F8386108E0FFF75FF802463B69D31AA9
:10193C00022B01D903236DE0294B1B6803F00073C4
:10194C00002BF0D17B681B6AB3F5803F08D1244B88
:10195C005B6823F400327B689B68214913434B601E
:10196C001F4B5B6823F474127B68196A7B685B6A93
:10197C000B431B4913434B601B4B01221A60FFF7AF
:10198C0033F8386108E0FFF72FF802463B69D31AA9
:10199C00022B01D903233DE0114B1B6803F00073AC
:1019AC00002BF0D035E0104B00221A60FFF71CF82A
:1019BC00386108E0FFF718F802463B69D31A022B8E
:1019CC0001D9032326E0064B1B6803F00073002BA0
:1019DC00F0D11EE07B68DB69012B07D1012319E0F4
:1019EC000010024000700040600042420B4B5B68EC
:1019FC00FB60FB6803F480327B681B6A9A4206D159
:101A0C00FB6803F470127B685B6A9A4201D0012375
:101A1C0000E0002318461837BD4680BD0010024078
:101A2C0080B584B000AF786039607B68002B01D141
:101A3C000123D0E06A4B1B6803F007033A689A4213
:101A4C0010D9674B1B6823F0070265493B681343A9
:101A5C000B60634B1B6803F007033A689A4201D092
:101A6C000123B8E07B681B6803F00203002B20D035
:101A7C007B681B6803F00403002B05D0594B5B6893
:101A8C00584A43F4E06353607B681B6803F0080317
:101A9C00002B05D0534B5B68524A43F460535360A0
:101AAC00504B5B6823F0F0027B689B684D491343F5
:101ABC004B607B681B6803F00103002B40D07B68F4
:101ACC005B68012B07D1474B1B6803F40033002BD9
:101ADC0015D101237FE07B685B68022B07D1414B5A
:101AEC001B6803F00073002B09D1012373E03D4BFD
:101AFC001B6803F00203002B01D101236BE0394B6F
:101B0C005B6823F003027B685B68364913434B60C8
:101B1C00FEF76AFFF8600AE0FEF766FF0246FB6814
:101B2C00D31A41F28832934201D9032353E02D4B4F
:101B3C005B6803F00C027B685B689B009A42EBD1FC
:101B4C00274B1B6803F007033A689A4210D2244BC8
:101B5C001B6823F0070222493B6813430B60204BA0
:101B6C001B6803F007033A689A4201D0012332E064
:101B7C007B681B6803F00403002B08D0194B5B68CF
:101B8C0023F4E0627B68DB68164913434B607B6887
:101B9C001B6803F00803002B09D0124B5B6823F47D
:101BAC0060527B681B69DB000E4913434B6000F0ED
:101BBC0021F802460B4B5B681B0903F00F030A4923
:101BCC00CB5C22FA03F3094A1360094B1B681846D5
:101BDC00FEF7C8FE002318461037BD4680BD00BF77
:101BEC0000200240001002401C3200082C00002093
:101BFC003000002090B48AB000AF294B3C1D0FCBB5
:101C0C0084E80F0040F201233B800023FB6100239A
:101C1C00BB6100237B6200237B6100233B62214B71
:101C2C005B68FB61FB6903F00C03042B02D0082BEF
:101C3C0003D02BE01C4B3B622BE0FB699B0C03F0AD
:101C4C000F0328333B4413F8243C7B61FB6903F4FA
:101C5C008033002B12D0134B5B685B0C03F0010339
:101C6C0028333B4413F8283CBB617B690E4A03FBC9
:101C7C0002F2BB69B2FBF3F37B6204E07B690B4AB3
:101C8C0002FB03F37B627B6A3B6202E0064B3B6226
:101C9C0000BF3B6A18462837BD4690BC704700BF52
:101CAC000C3200080010024000127A0000093D00BE
:101CBC0080B400AF024B1B681846BD4680BC704711
:101CCC002C00002080B500AFFFF7F2FF0246054B59
:101CDC005B681B0A03F007030349CB5C22FA03F38E
:101CEC00184680BD001002402C32000880B500AFB1
:101CFC00FFF7DEFF0246054B5B68DB0A03F00703C8
:101D0C000349CB5C22FA03F3184680BD0010024055
:101D1C002C32000880B485B000AF78600A4B1B6889
:101D2C000A4AA2FB03235B0A7A6802FB03F3FB60FB
:101D3C0000BFFB685A1EFA60002BF9D100BF00BF30
:101D4C001437BD4680BC70472C000020D34D621068
:101D5C0080B582B000AF78607B68002B01D1012385
:101D6C0041E07B6893F83D30DBB2002B06D17B68F9
:101D7C00002283F83C207868FEF720FD7B68022265
:101D8C0083F83D207B681A687B680433194610463B
:101D9C0000F06AFA7B68012283F846207B680122F6
:101DAC0083F83E207B68012283F83F207B68012268
:101DBC0083F840207B68012283F841207B68012254
:101DCC0083F842207B68012283F843207B68012240
:101DDC0083F844207B68012283F845207B6801222C
:101DEC0083F83D20002318460837BD4680BD00000F
:101DFC0080B485B000AF78607B6893F83D30DBB27F
:101E0C00012B01D0012335E07B68022283F83D20B1
:101E1C007B681B68DA687B681B6842F00102DA6039
:101E2C007B681B68164A934209D07B681B68B3F128
:101E3C00804F04D07B681B68124A934211D17B6897
:101E4C001B689B6803F00703FB60FB68062B10D034
:101E5C007B681B681A687B681B6842F001021A6079
:101E6C0007E07B681B681A687B681B6842F00102FC
:101E7C001A60002318461437BD4680BC704700BF5B
:101E8C00002C01400004004080B582B000AF7860A7
:101E9C007B681B681B6903F00203022B22D17B6851
:101EAC001B68DB6803F00203022B1BD17B681B68E9
:101EBC006FF002021A617B6801221A777B681B683B
:101ECC009B6903F00303002B03D0786800F0B1F991
:101EDC0005E0786800F0A4F9786800F0B3F97B6845
:101EEC0000221A777B681B681B6903F00403042B20
:101EFC0022D17B681B68DB6803F00403042B1BD125
:101F0C007B681B686FF004021A617B6802221A77E7
:101F1C007B681B689B6903F44073002B03D07868C3
:101F2C0000F087F905E0786800F07AF9786800F03D
:101F3C0089F97B6800221A777B681B681B6903F0A0
:101F4C000803082B22D17B681B68DB6803F00803AD
:101F5C00082B1BD17B681B686FF008021A617B6829
:101F6C0004221A777B681B68DB6903F00303002BE0
:101F7C0003D0786800F05DF905E0786800F050F95E
:101F8C00786800F05FF97B6800221A777B681B6821
:101F9C001B6903F01003102B22D17B681B68DB68D4
:101FAC0003F01003102B1BD17B681B686FF0100221
:101FBC001A617B6808221A777B681B68DB6903F45B
:101FCC004073002B03D0786800F033F905E0786893
:101FDC0000F026F9786800F035F97B6800221A7752
:101FEC007B681B681B6903F00103012B0ED17B6816
:101FFC001B68DB6803F00103012B07D17B681B68AE
:10200C006FF001021A617868FEF70FFA7B681B68A3
:10201C001B6903F08003802B0ED17B681B68DB6887
:10202C0003F08003802B07D17B681B686FF0800264
:10203C001A61786800F067FA7B681B681B6903F00B
:10204C004003402B0ED17B681B68DB6803F0400318
:10205C00402B07D17B681B686FF040021A617868CF
:10206C0000F0F9F87B681B681B6903F02003202B38
:10207C000ED17B681B68DB6803F02003202B07D193
:10208C007B681B686FF020021A61786800F032FAE6
:10209C0000BF0837BD4680BD80B584B000AF786006
:1020AC0039607B6893F83C30012B01D10223B3E0FB
:1020BC007B68012283F83C207B68022283F83D2058
:1020CC007B681B689B68FB60FB6823F07703FB60F5
:1020DC00FB6823F47F43FB607B681B68FA689A609B
:1020EC003B681B68B3F5005F3ED0B3F5005F00F2B0
:1020FC008780B3F5805F00F08580B3F5805F7FD873
:10210C00702B1AD0702B7BD8602B50D0602B77D8CB
:10211C00502B3CD0502B73D8402B58D0402B6FD821
:10212C00302B64D0302B6BD8202B60D0202B67D871
:10213C00002B5CD0102B5AD062E07B6818683B688F
:10214C0099683B685A683B68DB6800F05CF97B680F
:10215C001B689B68FB60FB6843F07703FB607B6844
:10216C001B68FA689A604EE07B6818683B6899684F
:10217C003B685A683B68DB6800F045F97B681B6874
:10218C009A687B681B6842F480429A603BE07B68EB
:10219C0018683B6859683B68DB681A4600F0BCF865
:1021AC007B681B685021184600F013F92BE07B6804
:1021BC0018683B6859683B68DB681A4600F0DAF827
:1021CC007B681B686021184600F003F91BE07B68F4
:1021DC0018683B6859683B68DB681A4600F09CF845
:1021EC007B681B684021184600F0F3F80BE07B6815
:1021FC001A683B681B681946104600F0EAF802E0C2
:10220C0000BF00E000BF7B68012283F83D207B68A3
:10221C00002283F83C20002318461037BD4680BDB1
:10222C0080B483B000AF786000BF0C37BD4680BC73
:10223C00704780B483B000AF786000BF0C37BD46E8
:10224C0080BC704780B483B000AF786000BF0C379F
:10225C00BD4680BC704780B483B000AF786000BFCF
:10226C000C37BD4680BC704780B485B000AF786039
:10227C0039607B681B68FB607B68254A934207D0FA
:10228C007B68B3F1804F03D07B68224A934208D11C
:10229C00FB6823F07003FB603B685B68FA681343D0
:1022AC00FB607B681A4A934207D07B68B3F1804F7E
:1022BC0003D07B68174A934208D1FB6823F4407320
:1022CC00FB603B68DB68FA681343FB60FB6823F038
:1022DC0080023B685B691343FB607B68FA681A6099
:1022EC003B689A687B68DA623B681A687B689A621A
:1022FC007B68074A934203D13B681A697B681A636F
:10230C007B6801225A6100BF1437BD4680BC704700
:10231C00002C01400004004080B487B000AFF8608E
:10232C00B9607A60FB681B6A7B61FB681B6A23F0EF
:10233C000102FB681A62FB689B693B613B6923F0F5
:10234C00F0033B617B681B013A6913433B617B697A
:10235C0023F00A037B617A69BB6813437B61FB68DA
:10236C003A699A61FB687A691A6200BF1C37BD46EC
:10237C0080BC704780B487B000AFF860B9607A60F9
:10238C00FB681B6A23F01002FB681A62FB689B69EE
:10239C007B61FB681B6A3B617B6923F470437B6147
:1023AC007B681B037A6913437B613B6923F0A003B1
:1023BC003B61BB681B013A6913433B61FB687A695B
:1023CC009A61FB683A691A6200BF1C37BD4680BC33
:1023DC00704780B485B000AF786039607B689B68CB
:1023EC00FB60FB6823F07003FB603A68FB681343E7
:1023FC0043F00703FB607B68FA689A6000BF1437F0
:10240C00BD4680BC704780B487B000AFF860B9603F
:10241C007A603B60FB689B687B617B6923F47F433C
:10242C007B613B681A027B681A43BB6813437A6969
:10243C0013437B61FB687A699A6000BF1C37BD4609
:10244C0080BC704780B485B000AF786039607B6821
:10245C0093F83C30012B01D1022341E07B6801222F
:10246C0083F83C207B68022283F83D207B681B6844
:10247C005B68FB607B681B689B68BB60FB6823F038
:10248C007003FB603B681B68FA681343FB607B6856
:10249C001B68FA685A607B681B68144A934209D01F
:1024AC007B681B68B3F1804F04D07B681B68104AB3
:1024BC0093420CD1BB6823F08003BB603B685B6824
:1024CC00BA681343BB607B681B68BA689A607B6808
:1024DC00012283F83D207B68002283F83C200023F6
:1024EC0018461437BD4680BC704700BF002C014015
:1024FC000004004080B483B000AF786000BF0C379C
:10250C00BD4680BC704780B483B000AF786000BF1C
:10251C000C37BD4680BC704780B582B000AF786088
:10252C007B68002B01D101233FE07B6893F83D30A1
:10253C00DBB2002B06D17B68002283F83C20786844
:10254C00FEF78AF97B68242283F83D207B681B68A0
:10255C00DA687B681B6822F40052DA60786800F055
:10256C0005F97B681B681A697B681B6822F490422A
:10257C001A617B681B685A697B681B6822F02A0207
:10258C005A617B681B68DA687B681B6842F40052EE
:10259C00DA607B6800221A647B68202283F83D2075
:1025AC007B68202283F83E20002318460837BD465E
:1025BC0080BD80B58AB002AFF860B9603B6013464D
:1025CC00FB8000237B61FB6893F83D30DBB2202B52
:1025DC007CD1BB68002B02D0FB88002B01D10123DE
:1025EC0075E0FB6893F83C30012B01D102236EE0BF
:1025FC00FB68012283F83C20FB6800221A64FB680C
:10260C00212283F83D20FEF7EFF97861FB68FA8808
:10261C009A84FB68FA88DA84FB689B68B3F5805F60
:10262C0008D1FB681B69002B04D10023FB61BB683C
:10263C00BB6103E0BB68FB610023BB61FB6800224C
:10264C0083F83C202AE03B6800937B6900228021C0
:10265C00F86800F040F80346002B01D0032336E065
:10266C00FB69002B0BD1BB691B881A46FB681B68E6
:10267C00C2F308025A60BB690233BB6107E0FB6915
:10268C001A78FB681B685A60FB690133FB61FB68B5
:10269C00DB8C9BB2013B9AB2FB68DA84FB68DB8C67
:1026AC009BB2002BCFD13B6800937B690022402169
:1026BC00F86800F010F80346002B01D0032306E065
:1026CC00FB68202283F83D20002300E002231846FB
:1026DC002037BD4680BD80B584B000AFF860B960CE
:1026EC003B601346FB712CE0BB69B3F1FF3F28D074
:1026FC00BB69002B07D0FEF777F902463B68D31A6B
:10270C00BA699A421DD2FB681B68DA68FB681B68C1
:10271C0022F4D072DA60FB681B685A69FB681B688C
:10272C0022F001025A61FB68202283F83D20FB68ED
:10273C00202283F83E20FB68002283F83C200323F0
:10274C000FE0FB681B681A68BB681340BA689A42B2
:10275C000CBF01230023DBB21A46FB799A42C3D08B
:10276C00002318461037BD4680BD000080B584B0EC
:10277C0000AF78607B681B681B6923F440517B6851
:10278C00DA687B681B680A431A617B689A687B6805
:10279C001B691A437B685B691343BB607B681B68CE
:1027AC00DB6823F4B05323F00C037A681268B96821
:1027BC000B43D3607B681B685B6923F440717B68B7
:1027CC009A697B681B680A435A617B681B682C4AB0
:1027DC00934203D1FFF78AFAF86002E0FFF772FA2E
:1027EC00F860FA6813469B0013449A001A447B68FD
:1027FC005B689B00B2FBF3F3224AA2FB03235B0949
:10280C001901FA6813469B0013449A001A447B681A
:10281C005B689B00B2FBF3F21A4BA3FB02035B0950
:10282C00642000FB03F3D31A1B013233154AA2FBBD
:10283C0003235B0903F0F0031944FA6813469B0069
:10284C0013449A001A447B685B689B00B2FBF3F25A
:10285C000C4BA3FB02035B09642000FB03F3D31AAC
:10286C001B013233074AA2FB03235B0903F00F025F
:10287C007B681B680A449A6000BF1037BD4680BD58
:10288C00003801401F85EB51014B1868704700BFA1
:10289C003800002070B500260C4D0D4C641BA410A4
:1028AC00A64209D100F09CFC00260A4D0A4C641B80
:1028BC00A410A64205D170BD55F8043B98470136CB
:1028CC00EEE755F8043B98470136F2E7683200080A
:1028DC0068320008683200086C3200080346024473
:1028EC00934200D1704703F8011BF9E70EB46FF067
:1028FC00004100B59CB01DAB02900690079104916D
:10290C000848094953F8042B0591006802A9019362
:10291C0000F068F80022029B1A701CB05DF804EB02
:10292C0003B07047380000200802FFFF2DE9F04784
:10293C008E6882469E420C4690461F4638D88A893D
:10294C0012F4906F32D0256809690133A5EB0109A7
:10295C0065694B4405EB450505EBD5756D109D423E
:10296C0038BF1D46530531D5294600F06FFB06468E
:10297C0050B90C234FF0FF30CAF80030A38943F054
:10298C004003A381BDE8F0874A46216900F0CEFAE6
:10299C00A38923F4906343F08003A38126614E4402
:1029AC0026603E466561A5EB0905A560BE4200D9CF
:1029BC003E4632464146206800F0C6FAA368002025
:1029CC009B1BA360236833442360DBE72A4600F09B
:1029DC00B1FB06460028E1D15046216900F0CEFA41
:1029EC00C7E700002DE9F04F98468B8907461B0678
:1029FC000D4614469DB00ED50B6963B9402100F00D
:102A0C0025FB2860286120B90C233B604FF0FF3078
:102A1C00D1E040236B610023099320238DF82930EA
:102A2C0030234FF00109CDF80C80DFF8A4818DF82C
:102A3C002A3023469A4613F8012B0AB1252AF9D1DC
:102A4C00BAEB040B0BD05B46224629463846FFF7FF
:102A5C006DFF013000F0AA80099A5A4409929AF845
:102A6C000030002B00F0A28000234FF0FF32CDE9A4
:102A7C0005230AF1010A049307938DF853301A9336
:102A8C005446052214F8011B514800F041FA049AEF
:102A9C00D8B9D00644BF20238DF85330110744BF5A
:102AAC002B238DF853309AF800302A2B15D054462E
:102ABC0000204FF00A0C079A214611F8013B303BDD
:102ACC00092B4ED9B0B1079214E0A0EB080309FA18
:102ADC0003F31343A2460493D2E7039B191D1B680F
:102AEC000391002BBBBF5B4242F00202079307939A
:102AFC00B8BF049223782E2B0CD163782A2B35D1B6
:102B0C00039B02341A1D1B680392002BB8BF4FF0B5
:102B1C00FF330593DFF8BCA003225046217800F068
:102B2C00F7F940B14023A0EB0A0003FA00F0049B34
:102B3C0001340343049314F8011B062226488DF834
:102B4C00281000F0E5F9002838D0244B1BBB039B60
:102B5C00073323F0070308330393099B334409938A
:102B6C0067E70C4601200CFB0232A5E700234FF06F
:102B7C000A0C194601340593204610F8012B303A03
:102B8C00092A03D9002BC5D00591C3E704460123BC
:102B9C000CFB0121F0E703AB00932A463846104B9F
:102BAC0004A9AFF30080421C0646D6D1AB895B0664
:102BBC003FF52CAF09981DB0BDE8F08F03AB009327
:102BCC002A463846064B04A900F07CF8EBE700BF18
:102BDC00343200083A3200083E320008000000008F
:102BEC00392900082DE9F047164699468A680B6981
:102BFC0007469342B8BF1346336091F843200C4606
:102C0C00DDF820800AB1013333602368990642BF96
:102C1C00336802333360256815F0060506D104F1DC
:102C2C00190AE36832689B1AAB4228DC94F84320FB
:102C3C00131E226818BF012392062DD4494638462C
:102C4C0004F14302C047013020D02368E56803F04B
:102C5C000603042B18BF002532684FF00006A3684A
:102C6C0008BFAD1A226908BF25EAE5759342C4BFB7
:102C7C009B1AED181A34B5421AD1002008E0012332
:102C8C00524649463846C047013003D14FF0FF3019
:102C9C00BDE8F0870135C4E73020E11881F8430026
:102CAC005A1C94F845102244023382F84310C5E7AD
:102CBC000123224649463846C0470130E6D001364A
:102CCC00D9E700002DE9FF470F7E9146782F80460B
:102CDC000C469A460C9D01F1430207D8622F0AD884
:102CEC00002F00F0D980582F00F0A48004F1420589
:102CFC0084F842703AE0A7F16303152BF6D801A1D2
:102D0C0051F823F0692D00087D2D0008F92C0008DE
:102D1C00F92C0008F92C0008F92C00087D2D00086E
:102D2C00F92C0008F92C0008F92C0008F92C0008E3
:102D3C008B2E0008AD2D00086D2E0008F92C000814
:102D4C00F92C0008AD2E0008F92C0008AD2D000858
:102D5C00F92C0008F92C0008752E00082B681A1D98
:102D6C001B682A6004F1420584F842300123A4E078
:102D7C0020682968060601F104030AD50E682B6049
:102D8C00002E03DA2D23764284F843300A235E4862
:102D9C0019E00E6810F0400F2B6018BF36B2EFE749
:102DAC002B682068191D2960010601D51E6802E0F8
:102DBC004606FBD51E886F2F0CBF08230A235248EA
:102DCC00002184F843106568002DA8BF2168A56018
:102DDC00A4BF21F0040121600EB9002D4DD0154681
:102DEC00B6FBF3F103FB1167C75D05F8017D3746B0
:102DFC00BB420E46F4D9082B0BD12368DE0708D54D
:102E0C00236961689942DEBF302305F8013C05F166
:102E1C00FF35521B22614B4621464046CDF800A09F
:102E2C0003AAFFF7DFFE01304CD14FF0FF3004B0A6
:102E3C00BDE8F087344881F845702968236851F85B
:102E4C00046B29601D0614D5DF0744BF43F0200333
:102E5C0023601EB9236823F0200323601023AFE7FF
:102E6C00236843F0200323607823284884F84530F6
:102E7C00E3E7590648BFB6B2E6E71546BBE72B6851
:102E8C002668181D6169286035061B6801D5196014
:102E9C0002E07006FBD51980002315462361BAE7C2
:102EAC002B6800211A1D2A601D686268284600F0F4
:102EBC002FF808B1401B606063682361002384F81D
:102ECC004330A8E72A46494640462369D04701309B
:102EDC00ABD023689B0713D4E068039B9842B8BF20
:102EEC001846A4E70123324649464046D0470130F4
:102EFC009BD00135E36803995B1AAB42F2DCEBE73C
:102F0C00002504F11906F5E7453200085632000891
:102F1C00034610B5C9B202449342184601D10020B1
:102F2C0003E0047801338C42F6D110BD0A4491427F
:102F3C0000F1FF3300D1704710B511F8014B9142ED
:102F4C0003F8014FF9D110BD884210B501EB020412
:102F5C0002D98442234607D8431EA14208D011F857
:102F6C00012B03F8012FF8E7014602448A4200D1F5
:102F7C0010BD13F8014D02F8014DF7E738B50546C1
:102F8C00002940D051F8043C0C1F002BB8BFE418AA
:102F9C0000F010F91C4A136833B9636014602846BA
:102FAC00BDE8384000F00CB9A34208D920682118BC
:102FBC008B4201BF19685B6809182160EDE71A465E
:102FCC005B680BB1A342FAD911685018A0420BD11F
:102FDC0020680144501883421160E0D118685B6886
:102FEC00014411605360DAE702D90C232B60D6E759
:102FFC00206821188B4201BF19685B680918216091
:10300C0063605460CBE738BD0C02002070B50E4EE7
:10301C000C463168054611B900F0BCF83060214609
:10302C00284600F0B7F8431C0AD0C41C24F0030453
:10303C00A04207D0211A284600F0ACF8013001D18B
:10304C004FF0FF34204670BD100200202DE9F041F6
:10305C00CD1C25F0030508350C2D38BF0C25002D93
:10306C00074601DBA94205D90C2300263B603046FC
:10307C00BDE8F0812E4E00F09DF833681C4634BB41
:10308C0029463846FFF7C2FF431C04464DD134682D
:10309C002646002E40D123683146384604EB0308FF
:1030AC0000F078F880453AD1216803356D1A25F087
:1030BC00030508350C2D38BF0C2538462946FFF77B
:1030CC00A5FF01302BD023682B4423600EE022682F
:1030DC00521B1ED40B2A16D96119A342256018BFA6
:1030EC005960636808BF316062514B60384604F127
:1030FC000B0600F065F826F00706231DF21AB6D071
:10310C009B1BA350B3E76268A3420CBF32605A60AA
:10311C00ECE723466468B2E734467668B9E70C23DB
:10312C0038463B6000F04CF8A1E72560DEE700BFB5
:10313C000C0200202DE9F041804614460E4621B9C0
:10314C001146BDE8F041FFF781BF2AB9FFF716FF22
:10315C0025462846BDE8F08100F038F88442074641
:10316C0002D8B4EB500F12D821464046FFF76EFF41
:10317C0005460028EDD0BC422246314628BF3A46CF
:10318C00FFF7D4FE31464046FFF7F8FEE1E735463F
:10319C00DFE7000038B50023054D044608462B60D8
:1031AC00FDF784FA431C02D12B6803B1236038BDB0
:1031BC0014020020014800F011B800BF18020020D2
:1031CC00014800F00CB800BF1802002051F8043C74
:1031DC00181F002BBCBF0B58C018704770477047A6
:1031EC00F8B500BFF8BC08BC9E467047F8B500BFE8
:0831FC00F8BC08BC9E467047B8
:103204003078255800000000020304050607080969
:103214000A0B0C0D0E0F101000000000000000003F
:103224000102030406070809000000000102030468
:10323400232D302B2000686C4C006566674546479B
:10324400003031323334353637383941424344451E
:10325400460030313233343536373839616263648D
:04326400656600009B
:043268003101000828
:04326C000D01000848
:10327000202D20005374617274696E6720493243B7
:10328000205363616E6E696E673A200D0A0000007C
:10329000446F6E6521200D0A0D0A00000024F40021
:1032A00010000000010000003C00002000000000B1
:1032B000000000000000000000000000000000000E
:1032C00000000000000000000000000000000000FE
:1032D00000000000000000000000000000000000EE
:1032E00000000000000000000000000000000000DE
:1032F00000000000000000000000000000000000CE
:0C330000000000000000000000000000C1
:04000005080008F9EE
:00000001FF
